{
  "contractName": "ERC4907",
  "abi": [
    {
      "inputs": [
        {
          "internalType": "string",
          "name": "_name",
          "type": "string"
        },
        {
          "internalType": "string",
          "name": "_symbol",
          "type": "string"
        }
      ],
      "stateMutability": "nonpayable",
      "type": "constructor"
    },
    {
      "anonymous": false,
      "inputs": [
        {
          "indexed": true,
          "internalType": "address",
          "name": "owner",
          "type": "address"
        },
        {
          "indexed": true,
          "internalType": "address",
          "name": "approved",
          "type": "address"
        },
        {
          "indexed": true,
          "internalType": "uint256",
          "name": "tokenId",
          "type": "uint256"
        }
      ],
      "name": "Approval",
      "type": "event"
    },
    {
      "anonymous": false,
      "inputs": [
        {
          "indexed": true,
          "internalType": "address",
          "name": "owner",
          "type": "address"
        },
        {
          "indexed": true,
          "internalType": "address",
          "name": "operator",
          "type": "address"
        },
        {
          "indexed": false,
          "internalType": "bool",
          "name": "approved",
          "type": "bool"
        }
      ],
      "name": "ApprovalForAll",
      "type": "event"
    },
    {
      "anonymous": false,
      "inputs": [
        {
          "indexed": true,
          "internalType": "address",
          "name": "from",
          "type": "address"
        },
        {
          "indexed": true,
          "internalType": "address",
          "name": "to",
          "type": "address"
        },
        {
          "indexed": true,
          "internalType": "uint256",
          "name": "tokenId",
          "type": "uint256"
        }
      ],
      "name": "Transfer",
      "type": "event"
    },
    {
      "anonymous": false,
      "inputs": [
        {
          "indexed": true,
          "internalType": "uint256",
          "name": "tokenId",
          "type": "uint256"
        },
        {
          "indexed": true,
          "internalType": "address",
          "name": "user",
          "type": "address"
        },
        {
          "indexed": false,
          "internalType": "uint64",
          "name": "expires",
          "type": "uint64"
        }
      ],
      "name": "UpdateUser",
      "type": "event"
    },
    {
      "inputs": [
        {
          "internalType": "address",
          "name": "to",
          "type": "address"
        },
        {
          "internalType": "uint256",
          "name": "tokenId",
          "type": "uint256"
        }
      ],
      "name": "approve",
      "outputs": [],
      "stateMutability": "nonpayable",
      "type": "function"
    },
    {
      "inputs": [
        {
          "internalType": "address",
          "name": "owner",
          "type": "address"
        }
      ],
      "name": "balanceOf",
      "outputs": [
        {
          "internalType": "uint256",
          "name": "",
          "type": "uint256"
        }
      ],
      "stateMutability": "view",
      "type": "function"
    },
    {
      "inputs": [
        {
          "internalType": "uint256",
          "name": "tokenId",
          "type": "uint256"
        }
      ],
      "name": "getApproved",
      "outputs": [
        {
          "internalType": "address",
          "name": "",
          "type": "address"
        }
      ],
      "stateMutability": "view",
      "type": "function"
    },
    {
      "inputs": [
        {
          "internalType": "address",
          "name": "owner",
          "type": "address"
        },
        {
          "internalType": "address",
          "name": "operator",
          "type": "address"
        }
      ],
      "name": "isApprovedForAll",
      "outputs": [
        {
          "internalType": "bool",
          "name": "",
          "type": "bool"
        }
      ],
      "stateMutability": "view",
      "type": "function"
    },
    {
      "inputs": [],
      "name": "name",
      "outputs": [
        {
          "internalType": "string",
          "name": "",
          "type": "string"
        }
      ],
      "stateMutability": "view",
      "type": "function"
    },
    {
      "inputs": [
        {
          "internalType": "uint256",
          "name": "tokenId",
          "type": "uint256"
        }
      ],
      "name": "ownerOf",
      "outputs": [
        {
          "internalType": "address",
          "name": "",
          "type": "address"
        }
      ],
      "stateMutability": "view",
      "type": "function"
    },
    {
      "inputs": [
        {
          "internalType": "address",
          "name": "from",
          "type": "address"
        },
        {
          "internalType": "address",
          "name": "to",
          "type": "address"
        },
        {
          "internalType": "uint256",
          "name": "tokenId",
          "type": "uint256"
        }
      ],
      "name": "safeTransferFrom",
      "outputs": [],
      "stateMutability": "nonpayable",
      "type": "function"
    },
    {
      "inputs": [
        {
          "internalType": "address",
          "name": "from",
          "type": "address"
        },
        {
          "internalType": "address",
          "name": "to",
          "type": "address"
        },
        {
          "internalType": "uint256",
          "name": "tokenId",
          "type": "uint256"
        },
        {
          "internalType": "bytes",
          "name": "data",
          "type": "bytes"
        }
      ],
      "name": "safeTransferFrom",
      "outputs": [],
      "stateMutability": "nonpayable",
      "type": "function"
    },
    {
      "inputs": [
        {
          "internalType": "address",
          "name": "operator",
          "type": "address"
        },
        {
          "internalType": "bool",
          "name": "approved",
          "type": "bool"
        }
      ],
      "name": "setApprovalForAll",
      "outputs": [],
      "stateMutability": "nonpayable",
      "type": "function"
    },
    {
      "inputs": [
        {
          "internalType": "uint256",
          "name": "tokenId",
          "type": "uint256"
        },
        {
          "internalType": "address",
          "name": "user",
          "type": "address"
        },
        {
          "internalType": "uint64",
          "name": "expires",
          "type": "uint64"
        }
      ],
      "name": "setUser",
      "outputs": [],
      "stateMutability": "nonpayable",
      "type": "function"
    },
    {
      "inputs": [
        {
          "internalType": "bytes4",
          "name": "interfaceId",
          "type": "bytes4"
        }
      ],
      "name": "supportsInterface",
      "outputs": [
        {
          "internalType": "bool",
          "name": "",
          "type": "bool"
        }
      ],
      "stateMutability": "view",
      "type": "function"
    },
    {
      "inputs": [],
      "name": "symbol",
      "outputs": [
        {
          "internalType": "string",
          "name": "",
          "type": "string"
        }
      ],
      "stateMutability": "view",
      "type": "function"
    },
    {
      "inputs": [
        {
          "internalType": "uint256",
          "name": "tokenId",
          "type": "uint256"
        }
      ],
      "name": "tokenURI",
      "outputs": [
        {
          "internalType": "string",
          "name": "",
          "type": "string"
        }
      ],
      "stateMutability": "view",
      "type": "function"
    },
    {
      "inputs": [
        {
          "internalType": "address",
          "name": "from",
          "type": "address"
        },
        {
          "internalType": "address",
          "name": "to",
          "type": "address"
        },
        {
          "internalType": "uint256",
          "name": "tokenId",
          "type": "uint256"
        }
      ],
      "name": "transferFrom",
      "outputs": [],
      "stateMutability": "nonpayable",
      "type": "function"
    },
    {
      "inputs": [
        {
          "internalType": "uint256",
          "name": "tokenId",
          "type": "uint256"
        }
      ],
      "name": "userExpires",
      "outputs": [
        {
          "internalType": "uint256",
          "name": "",
          "type": "uint256"
        }
      ],
      "stateMutability": "view",
      "type": "function"
    },
    {
      "inputs": [
        {
          "internalType": "uint256",
          "name": "tokenId",
          "type": "uint256"
        }
      ],
      "name": "userOf",
      "outputs": [
        {
          "internalType": "address",
          "name": "",
          "type": "address"
        }
      ],
      "stateMutability": "view",
      "type": "function"
    }
  ],
  "bytecode": "0x60806040523480156200001157600080fd5b50d380156200001f57600080fd5b50d280156200002d57600080fd5b5060405162002f0738038062002f078339818101604052810190620000539190620001bf565b818181600090805190602001906200006d92919062000091565b5080600190805190602001906200008692919062000091565b5050505050620003c8565b8280546200009f90620002d9565b90600052602060002090601f016020900481019282620000c357600085556200010f565b82601f10620000de57805160ff19168380011785556200010f565b828001600101855582156200010f579182015b828111156200010e578251825591602001919060010190620000f1565b5b5090506200011e919062000122565b5090565b5b808211156200013d57600081600090555060010162000123565b5090565b60006200015862000152846200026d565b62000244565b905082815260208101848484011115620001775762000176620003a8565b5b62000184848285620002a3565b509392505050565b600082601f830112620001a457620001a3620003a3565b5b8151620001b684826020860162000141565b91505092915050565b60008060408385031215620001d957620001d8620003b2565b5b600083015167ffffffffffffffff811115620001fa57620001f9620003ad565b5b62000208858286016200018c565b925050602083015167ffffffffffffffff8111156200022c576200022b620003ad565b5b6200023a858286016200018c565b9150509250929050565b60006200025062000263565b90506200025e82826200030f565b919050565b6000604051905090565b600067ffffffffffffffff8211156200028b576200028a62000374565b5b6200029682620003b7565b9050602081019050919050565b60005b83811015620002c3578082015181840152602081019050620002a6565b83811115620002d3576000848401525b50505050565b60006002820490506001821680620002f257607f821691505b6020821081141562000309576200030862000345565b5b50919050565b6200031a82620003b7565b810181811067ffffffffffffffff821117156200033c576200033b62000374565b5b80604052505050565b7f4e487b7100000000000000000000000000000000000000000000000000000000600052602260045260246000fd5b7f4e487b7100000000000000000000000000000000000000000000000000000000600052604160045260246000fd5b600080fd5b600080fd5b600080fd5b600080fd5b6000601f19601f8301169050919050565b612b2f80620003d86000396000f3fe608060405234801561001057600080fd5b50d3801561001d57600080fd5b50d2801561002a57600080fd5b506004361061011a5760003560e01c80638fc88c48116100b1578063c2f1f14a11610080578063c2f1f14a146102d7578063c87b56dd14610307578063e030565e14610337578063e985e9c5146103535761011a565b80638fc88c481461025157806395d89b4114610281578063a22cb4651461029f578063b88d4fde146102bb5761011a565b806323b872dd116100ed57806323b872dd146101b957806342842e0e146101d55780636352211e146101f157806370a08231146102215761011a565b806301ffc9a71461011f57806306fdde031461014f578063081812fc1461016d578063095ea7b31461019d575b600080fd5b61013960048036038101906101349190611e6d565b610383565b6040516101469190612241565b60405180910390f35b6101576103fd565b6040516101649190612277565b60405180910390f35b61018760048036038101906101829190611ec7565b61048f565b60405161019491906121da565b60405180910390f35b6101b760048036038101906101b29190611e2d565b6104d5565b005b6101d360048036038101906101ce9190611d17565b6105ed565b005b6101ef60048036038101906101ea9190611d17565b61064d565b005b61020b60048036038101906102069190611ec7565b61066d565b60405161021891906121da565b60405180910390f35b61023b60048036038101906102369190611caa565b6106f4565b60405161024891906123f9565b60405180910390f35b61026b60048036038101906102669190611ec7565b6107ac565b60405161027891906123f9565b60405180910390f35b6102896107ea565b6040516102969190612277565b60405180910390f35b6102b960048036038101906102b49190611ded565b61087c565b005b6102d560048036038101906102d09190611d6a565b610892565b005b6102f160048036038101906102ec9190611ec7565b6108f4565b6040516102fe91906121da565b60405180910390f35b610321600480360381019061031c9190611ec7565b610979565b60405161032e9190612277565b60405180910390f35b610351600480360381019061034c9190611ef4565b610a8c565b005b61036d60048036038101906103689190611cd7565b610c26565b60405161037a9190612241565b60405180910390f35b60007fad092b5c000000000000000000000000000000000000000000000000000000007bffffffffffffffffffffffffffffffffffffffffffffffffffffffff1916827bffffffffffffffffffffffffffffffffffffffffffffffffffffffff191614806103f657506103f582610cba565b5b9050919050565b60606000805461040c9061264f565b80601f01602080910402602001604051908101604052809291908181526020018280546104389061264f565b80156104855780601f1061045a57610100808354040283529160200191610485565b820191906000526020600020905b81548152906001019060200180831161046857829003601f168201915b5050505050905090565b600061049a82610d9c565b6004600083815260200190815260200160002060009054906101000a900473ffffffffffffffffffffffffffffffffffffffff169050919050565b60006104e08261066d565b90508073ffffffffffffffffffffffffffffffffffffffff168373ffffffffffffffffffffffffffffffffffffffff161415610551576040517f08c379a000000000000000000000000000000000000000000000000000000000815260040161054890612379565b60405180910390fd5b8073ffffffffffffffffffffffffffffffffffffffff16610570610de7565b73ffffffffffffffffffffffffffffffffffffffff16148061059f575061059e81610599610de7565b610c26565b5b6105de576040517f08c379a00000000000000000000000000000000000000000000000000000000081526004016105d590612399565b60405180910390fd5b6105e88383610def565b505050565b6105fe6105f8610de7565b82610ea8565b61063d576040517f08c379a000000000000000000000000000000000000000000000000000000000815260040161063490612299565b60405180910390fd5b610648838383610f3d565b505050565b61066883838360405180602001604052806000815250610892565b505050565b60008061067983611237565b9050600073ffffffffffffffffffffffffffffffffffffffff168173ffffffffffffffffffffffffffffffffffffffff1614156106eb576040517f08c379a00000000000000000000000000000000000000000000000000000000081526004016106e290612359565b60405180910390fd5b80915050919050565b60008073ffffffffffffffffffffffffffffffffffffffff168273ffffffffffffffffffffffffffffffffffffffff161415610765576040517f08c379a000000000000000000000000000000000000000000000000000000000815260040161075c90612339565b60405180910390fd5b600360008373ffffffffffffffffffffffffffffffffffffffff1673ffffffffffffffffffffffffffffffffffffffff168152602001908152602001600020549050919050565b60006007600083815260200190815260200160002060000160149054906101000a900467ffffffffffffffff1667ffffffffffffffff169050919050565b6060600180546107f99061264f565b80601f01602080910402602001604051908101604052809291908181526020018280546108259061264f565b80156108725780601f1061084757610100808354040283529160200191610872565b820191906000526020600020905b81548152906001019060200180831161085557829003601f168201915b5050505050905090565b61088e610887610de7565b8383611274565b5050565b6108a361089d610de7565b83610ea8565b6108e2576040517f08c379a00000000000000000000000000000000000000000000000000000000081526004016108d990612299565b60405180910390fd5b6108ee848484846113e1565b50505050565b6000426007600084815260200190815260200160002060000160149054906101000a900467ffffffffffffffff1667ffffffffffffffff161061096f576007600083815260200190815260200160002060000160009054906101000a900473ffffffffffffffffffffffffffffffffffffffff169050610974565b600090505b919050565b606061098482610d9c565b60006006600084815260200190815260200160002080546109a49061264f565b80601f01602080910402602001604051908101604052809291908181526020018280546109d09061264f565b8015610a1d5780601f106109f257610100808354040283529160200191610a1d565b820191906000526020600020905b815481529060010190602001808311610a0057829003601f168201915b505050505090506000610a2e61143d565b9050600081511415610a44578192505050610a87565b600082511115610a79578082604051602001610a619291906121b6565b60405160208183030381529060405292505050610a87565b610a8284611454565b925050505b919050565b6000600760008581526020019081526020016000209050610aad3385610ea8565b610aec576040517f08c379a0000000000000000000000000000000000000000000000000000000008152600401610ae3906123b9565b60405180910390fd5b600073ffffffffffffffffffffffffffffffffffffffff16610b0d856108f4565b73ffffffffffffffffffffffffffffffffffffffff1614610b63576040517f08c379a0000000000000000000000000000000000000000000000000000000008152600401610b5a906123d9565b60405180910390fd5b828160000160006101000a81548173ffffffffffffffffffffffffffffffffffffffff021916908373ffffffffffffffffffffffffffffffffffffffff160217905550818160000160146101000a81548167ffffffffffffffff021916908367ffffffffffffffff1602179055508273ffffffffffffffffffffffffffffffffffffffff16847f4e06b4e7000e659094299b3533b47b6aa8ad048e95e872d23d1f4ee55af89cfe84604051610c189190612414565b60405180910390a350505050565b6000600560008473ffffffffffffffffffffffffffffffffffffffff1673ffffffffffffffffffffffffffffffffffffffff16815260200190815260200160002060008373ffffffffffffffffffffffffffffffffffffffff1673ffffffffffffffffffffffffffffffffffffffff16815260200190815260200160002060009054906101000a900460ff16905092915050565b60007f80ac58cd000000000000000000000000000000000000000000000000000000007bffffffffffffffffffffffffffffffffffffffffffffffffffffffff1916827bffffffffffffffffffffffffffffffffffffffffffffffffffffffff19161480610d8557507f5b5e139f000000000000000000000000000000000000000000000000000000007bffffffffffffffffffffffffffffffffffffffffffffffffffffffff1916827bffffffffffffffffffffffffffffffffffffffffffffffffffffffff1916145b80610d955750610d94826114bc565b5b9050919050565b610da581611526565b610de4576040517f08c379a0000000000000000000000000000000000000000000000000000000008152600401610ddb90612359565b60405180910390fd5b50565b600033905090565b816004600083815260200190815260200160002060006101000a81548173ffffffffffffffffffffffffffffffffffffffff021916908373ffffffffffffffffffffffffffffffffffffffff160217905550808273ffffffffffffffffffffffffffffffffffffffff16610e628361066d565b73ffffffffffffffffffffffffffffffffffffffff167f8c5be1e5ebec7d5bd14f71427d1e84f3dd0314c0f7b2291e5b200ac8c7c3b92560405160405180910390a45050565b600080610eb48361066d565b90508073ffffffffffffffffffffffffffffffffffffffff168473ffffffffffffffffffffffffffffffffffffffff161480610ef65750610ef58185610c26565b5b80610f3457508373ffffffffffffffffffffffffffffffffffffffff16610f1c8461048f565b73ffffffffffffffffffffffffffffffffffffffff16145b91505092915050565b8273ffffffffffffffffffffffffffffffffffffffff16610f5d8261066d565b73ffffffffffffffffffffffffffffffffffffffff1614610fb3576040517f08c379a0000000000000000000000000000000000000000000000000000000008152600401610faa906122d9565b60405180910390fd5b600073ffffffffffffffffffffffffffffffffffffffff168273ffffffffffffffffffffffffffffffffffffffff161415611023576040517f08c379a000000000000000000000000000000000000000000000000000000000815260040161101a906122f9565b60405180910390fd5b6110308383836001611567565b8273ffffffffffffffffffffffffffffffffffffffff166110508261066d565b73ffffffffffffffffffffffffffffffffffffffff16146110a6576040517f08c379a000000000000000000000000000000000000000000000000000000000815260040161109d906122d9565b60405180910390fd5b6004600082815260200190815260200160002060006101000a81549073ffffffffffffffffffffffffffffffffffffffff02191690556001600360008573ffffffffffffffffffffffffffffffffffffffff1673ffffffffffffffffffffffffffffffffffffffff168152602001908152602001600020600082825403925050819055506001600360008473ffffffffffffffffffffffffffffffffffffffff1673ffffffffffffffffffffffffffffffffffffffff16815260200190815260200160002060008282540192505081905550816002600083815260200190815260200160002060006101000a81548173ffffffffffffffffffffffffffffffffffffffff021916908373ffffffffffffffffffffffffffffffffffffffff160217905550808273ffffffffffffffffffffffffffffffffffffffff168473ffffffffffffffffffffffffffffffffffffffff167fddf252ad1be2c89b69c2b068fc378daa952ba7f163c4a11628f55a4df523b3ef60405160405180910390a461123283838360016116c8565b505050565b60006002600083815260200190815260200160002060009054906101000a900473ffffffffffffffffffffffffffffffffffffffff169050919050565b8173ffffffffffffffffffffffffffffffffffffffff168373ffffffffffffffffffffffffffffffffffffffff1614156112e3576040517f08c379a00000000000000000000000000000000000000000000000000000000081526004016112da90612319565b60405180910390fd5b80600560008573ffffffffffffffffffffffffffffffffffffffff1673ffffffffffffffffffffffffffffffffffffffff16815260200190815260200160002060008473ffffffffffffffffffffffffffffffffffffffff1673ffffffffffffffffffffffffffffffffffffffff16815260200190815260200160002060006101000a81548160ff0219169083151502179055508173ffffffffffffffffffffffffffffffffffffffff168373ffffffffffffffffffffffffffffffffffffffff167f17307eab39ab6107e8899845ad3d59bd9653f200f220920489ca2b5937696c31836040516113d49190612241565b60405180910390a3505050565b6113ec848484610f3d565b6113f8848484846116ce565b611437576040517f08c379a000000000000000000000000000000000000000000000000000000000815260040161142e906122b9565b60405180910390fd5b50505050565b606060405180602001604052806000815250905090565b606061145f82610d9c565b600061146961143d565b9050600081511161148957604051806020016040528060008152506114b4565b8061149384611860565b6040516020016114a49291906121b6565b6040516020818303038152906040525b915050919050565b60007f01ffc9a7000000000000000000000000000000000000000000000000000000007bffffffffffffffffffffffffffffffffffffffffffffffffffffffff1916827bffffffffffffffffffffffffffffffffffffffffffffffffffffffff1916149050919050565b60008073ffffffffffffffffffffffffffffffffffffffff1661154883611237565b73ffffffffffffffffffffffffffffffffffffffff1614159050919050565b6115748484846001611938565b8273ffffffffffffffffffffffffffffffffffffffff168473ffffffffffffffffffffffffffffffffffffffff16141580156116135750600073ffffffffffffffffffffffffffffffffffffffff166007600084815260200190815260200160002060000160009054906101000a900473ffffffffffffffffffffffffffffffffffffffff1673ffffffffffffffffffffffffffffffffffffffff1614155b156116c25760076000838152602001908152602001600020600080820160006101000a81549073ffffffffffffffffffffffffffffffffffffffff02191690556000820160146101000a81549067ffffffffffffffff02191690555050600073ffffffffffffffffffffffffffffffffffffffff16827f4e06b4e7000e659094299b3533b47b6aa8ad048e95e872d23d1f4ee55af89cfe60006040516116b9919061225c565b60405180910390a35b50505050565b50505050565b6000808473ffffffffffffffffffffffffffffffffffffffff163b1115611853578373ffffffffffffffffffffffffffffffffffffffff1663150b7a02611713610de7565b8786866040518563ffffffff1660e01b815260040161173594939291906121f5565b602060405180830381600087803b15801561174f57600080fd5b505af192505050801561178057506040513d601f19601f8201168201806040525081019061177d9190611e9a565b60015b611803573d80600081146117b0576040519150601f19603f3d011682016040523d82523d6000602084013e6117b5565b606091505b506000815114156117fb576040517f08c379a00000000000000000000000000000000000000000000000000000000081526004016117f2906122b9565b60405180910390fd5b805181602001fd5b63150b7a0260e01b7bffffffffffffffffffffffffffffffffffffffffffffffffffffffff1916817bffffffffffffffffffffffffffffffffffffffffffffffffffffffff191614915050611858565b600190505b949350505050565b60606000600161186f84611a5e565b01905060008167ffffffffffffffff81111561188e5761188d61273f565b5b6040519080825280601f01601f1916602001820160405280156118c05781602001600182028036833780820191505090505b509050600082602001820190505b60011561192d578080600190039150507f3031323334353637383961626364656600000000000000000000000000000000600a86061a8153600a8581611917576119166126e1565b5b04945060008514156119285761192d565b6118ce565b819350505050919050565b6001811115611a5857600073ffffffffffffffffffffffffffffffffffffffff168473ffffffffffffffffffffffffffffffffffffffff16146119cc5780600360008673ffffffffffffffffffffffffffffffffffffffff1673ffffffffffffffffffffffffffffffffffffffff16815260200190815260200160002060008282546119c4919061251e565b925050819055505b600073ffffffffffffffffffffffffffffffffffffffff168373ffffffffffffffffffffffffffffffffffffffff1614611a575780600360008573ffffffffffffffffffffffffffffffffffffffff1673ffffffffffffffffffffffffffffffffffffffff1681526020019081526020016000206000828254611a4f91906124c8565b925050819055505b5b50505050565b600080600090507a184f03e93ff9f4daa797ed6e38ed64bf6a1f0100000000000000008310611abc577a184f03e93ff9f4daa797ed6e38ed64bf6a1f0100000000000000008381611ab257611ab16126e1565b5b0492506040810190505b6d04ee2d6d415b85acef81000000008310611af9576d04ee2d6d415b85acef81000000008381611aef57611aee6126e1565b5b0492506020810190505b662386f26fc100008310611b2857662386f26fc100008381611b1e57611b1d6126e1565b5b0492506010810190505b6305f5e1008310611b51576305f5e1008381611b4757611b466126e1565b5b0492506008810190505b6127108310611b76576127108381611b6c57611b6b6126e1565b5b0492506004810190505b60648310611b995760648381611b8f57611b8e6126e1565b5b0492506002810190505b600a8310611ba8576001810190505b80915050919050565b6000611bc4611bbf84612454565b61242f565b905082815260208101848484011115611be057611bdf612773565b5b611beb84828561260d565b509392505050565b600081359050611c0281612a86565b611c0b81612552565b905092915050565b600081359050611c2281612a9d565b92915050565b600081359050611c3781612ab4565b92915050565b600081519050611c4c81612ab4565b92915050565b600082601f830112611c6757611c6661276e565b5b8135611c77848260208601611bb1565b91505092915050565b600081359050611c8f81612acb565b92915050565b600081359050611ca481612ae2565b92915050565b600060208284031215611cc057611cbf61277d565b5b6000611cce84828501611bf3565b91505092915050565b60008060408385031215611cee57611ced61277d565b5b6000611cfc85828601611bf3565b9250506020611d0d85828601611bf3565b9150509250929050565b600080600060608486031215611d3057611d2f61277d565b5b6000611d3e86828701611bf3565b9350506020611d4f86828701611bf3565b9250506040611d6086828701611c80565b9150509250925092565b60008060008060808587031215611d8457611d8361277d565b5b6000611d9287828801611bf3565b9450506020611da387828801611bf3565b9350506040611db487828801611c80565b925050606085013567ffffffffffffffff811115611dd557611dd4612778565b5b611de187828801611c52565b91505092959194509250565b60008060408385031215611e0457611e0361277d565b5b6000611e1285828601611bf3565b9250506020611e2385828601611c13565b9150509250929050565b60008060408385031215611e4457611e4361277d565b5b6000611e5285828601611bf3565b9250506020611e6385828601611c80565b9150509250929050565b600060208284031215611e8357611e8261277d565b5b6000611e9184828501611c28565b91505092915050565b600060208284031215611eb057611eaf61277d565b5b6000611ebe84828501611c3d565b91505092915050565b600060208284031215611edd57611edc61277d565b5b6000611eeb84828501611c80565b91505092915050565b600080600060608486031215611f0d57611f0c61277d565b5b6000611f1b86828701611c80565b9350506020611f2c86828701611bf3565b9250506040611f3d86828701611c95565b9150509250925092565b611f5081612552565b82525050565b611f5f81612564565b82525050565b6000611f7082612485565b611f7a818561249b565b9350611f8a81856020860161261c565b611f9381612782565b840191505092915050565b611fa7816125fb565b82525050565b6000611fb882612490565b611fc281856124ac565b9350611fd281856020860161261c565b611fdb81612782565b840191505092915050565b6000611ff182612490565b611ffb81856124bd565b935061200b81856020860161261c565b80840191505092915050565b6000612024602d836124ac565b915061202f82612793565b604082019050919050565b60006120476032836124ac565b9150612052826127e2565b604082019050919050565b600061206a6025836124ac565b915061207582612831565b604082019050919050565b600061208d6024836124ac565b915061209882612880565b604082019050919050565b60006120b06019836124ac565b91506120bb826128cf565b602082019050919050565b60006120d36029836124ac565b91506120de826128f8565b604082019050919050565b60006120f66018836124ac565b915061210182612947565b602082019050919050565b60006121196021836124ac565b915061212482612970565b604082019050919050565b600061213c603d836124ac565b9150612147826129bf565b604082019050919050565b600061215f6031836124ac565b915061216a82612a0e565b604082019050919050565b60006121826010836124ac565b915061218d82612a5d565b602082019050919050565b6121a1816125dd565b82525050565b6121b0816125e7565b82525050565b60006121c28285611fe6565b91506121ce8284611fe6565b91508190509392505050565b60006020820190506121ef6000830184611f47565b92915050565b600060808201905061220a6000830187611f47565b6122176020830186611f47565b6122246040830185612198565b81810360608301526122368184611f65565b905095945050505050565b60006020820190506122566000830184611f56565b92915050565b60006020820190506122716000830184611f9e565b92915050565b600060208201905081810360008301526122918184611fad565b905092915050565b600060208201905081810360008301526122b281612017565b9050919050565b600060208201905081810360008301526122d28161203a565b9050919050565b600060208201905081810360008301526122f28161205d565b9050919050565b6000602082019050818103600083015261231281612080565b9050919050565b60006020820190508181036000830152612332816120a3565b9050919050565b60006020820190508181036000830152612352816120c6565b9050919050565b60006020820190508181036000830152612372816120e9565b9050919050565b600060208201905081810360008301526123928161210c565b9050919050565b600060208201905081810360008301526123b28161212f565b9050919050565b600060208201905081810360008301526123d281612152565b9050919050565b600060208201905081810360008301526123f281612175565b9050919050565b600060208201905061240e6000830184612198565b92915050565b600060208201905061242960008301846121a7565b92915050565b600061243961244a565b90506124458282612681565b919050565b6000604051905090565b600067ffffffffffffffff82111561246f5761246e61273f565b5b61247882612782565b9050602081019050919050565b600081519050919050565b600081519050919050565b600082825260208201905092915050565b600082825260208201905092915050565b600081905092915050565b60006124d3826125dd565b91506124de836125dd565b9250827fffffffffffffffffffffffffffffffffffffffffffffffffffffffffffffffff03821115612513576125126126b2565b5b828201905092915050565b6000612529826125dd565b9150612534836125dd565b925082821015612547576125466126b2565b5b828203905092915050565b600061255d8261259c565b9050919050565b60008115159050919050565b60007fffffffff0000000000000000000000000000000000000000000000000000000082169050919050565b600073ffffffffffffffffffffffffffffffffffffffff82169050919050565b600074ffffffffffffffffffffffffffffffffffffffffff82169050919050565b6000819050919050565b600067ffffffffffffffff82169050919050565b6000612606826125e7565b9050919050565b82818337600083830152505050565b60005b8381101561263a57808201518184015260208101905061261f565b83811115612649576000848401525b50505050565b6000600282049050600182168061266757607f821691505b6020821081141561267b5761267a612710565b5b50919050565b61268a82612782565b810181811067ffffffffffffffff821117156126a9576126a861273f565b5b80604052505050565b7f4e487b7100000000000000000000000000000000000000000000000000000000600052601160045260246000fd5b7f4e487b7100000000000000000000000000000000000000000000000000000000600052601260045260246000fd5b7f4e487b7100000000000000000000000000000000000000000000000000000000600052602260045260246000fd5b7f4e487b7100000000000000000000000000000000000000000000000000000000600052604160045260246000fd5b600080fd5b600080fd5b600080fd5b600080fd5b6000601f19601f8301169050919050565b7f4552433732313a2063616c6c6572206973206e6f7420746f6b656e206f776e6560008201527f72206f7220617070726f76656400000000000000000000000000000000000000602082015250565b7f4552433732313a207472616e7366657220746f206e6f6e20455243373231526560008201527f63656976657220696d706c656d656e7465720000000000000000000000000000602082015250565b7f4552433732313a207472616e736665722066726f6d20696e636f72726563742060008201527f6f776e6572000000000000000000000000000000000000000000000000000000602082015250565b7f4552433732313a207472616e7366657220746f20746865207a65726f2061646460008201527f7265737300000000000000000000000000000000000000000000000000000000602082015250565b7f4552433732313a20617070726f766520746f2063616c6c657200000000000000600082015250565b7f4552433732313a2061646472657373207a65726f206973206e6f74206120766160008201527f6c6964206f776e65720000000000000000000000000000000000000000000000602082015250565b7f4552433732313a20696e76616c696420746f6b656e2049440000000000000000600082015250565b7f4552433732313a20617070726f76616c20746f2063757272656e74206f776e6560008201527f7200000000000000000000000000000000000000000000000000000000000000602082015250565b7f4552433732313a20617070726f76652063616c6c6572206973206e6f7420746f60008201527f6b656e206f776e6572206f7220617070726f76656420666f7220616c6c000000602082015250565b7f4552433732313a207472616e736665722063616c6c6572206973206e6f74206f60008201527f776e6572206e6f7220617070726f766564000000000000000000000000000000602082015250565b7f7573657220616c72656164792073657400000000000000000000000000000000600082015250565b612a8f816125bc565b8114612a9a57600080fd5b50565b612aa681612564565b8114612ab157600080fd5b50565b612abd81612570565b8114612ac857600080fd5b50565b612ad4816125dd565b8114612adf57600080fd5b50565b612aeb816125e7565b8114612af657600080fd5b5056fea26474726f6e58221220ee24643997cdc4f7c73876049ed2ac59df81a85e9f0c43ecfe4c9d8fbe480e2d64736f6c63430008060033",
  "source": "// SPDX-License-Identifier: MIT\r\npragma solidity 0.8;\r\n\r\nimport \"@openzeppelin/contracts/token/ERC721/extensions/ERC721URIStorage.sol\";\r\nimport \"./IERC4907.sol\";\r\n\r\ncontract ERC4907 is ERC721URIStorage, IERC4907 {\r\n\r\n    constructor (string memory _name, string memory _symbol) ERC721(_name, _symbol) {\r\n        \r\n    }\r\n\r\n    struct UserInfo {\r\n        address user; // address of user role\r\n        uint64 expires; // unix timestamp, user expires\r\n    }\r\n\r\n    mapping(uint256 => UserInfo) internal _users;\r\n\r\n\r\n    /// @notice set the user and expires of a NFT\r\n    /// @dev The zero address indicates there is no user\r\n    /// Throws if `tokenId` is not valid NFT\r\n    /// @param user  The new user of the NFT\r\n    /// @param expires  UNIX timestamp, The new user could use the NFT before expires\r\n    function setUser(\r\n        uint256 tokenId,\r\n        address user,\r\n        uint64 expires\r\n    ) override public virtual {\r\n        UserInfo storage info = _users[tokenId];\r\n        require(\r\n            _isApprovedOrOwner(msg.sender, tokenId),\r\n            \"ERC721: transfer caller is not owner nor approved\"\r\n        );\r\n        require(userOf(tokenId) == address(0), \"user already set\");\r\n        info.user = user;\r\n        info.expires = expires;\r\n        emit UpdateUser(tokenId, user, expires);\r\n    }\r\n\r\n    /// @notice Get the user address of an NFT\r\n    /// @dev The zero address indicates that there is no user or the user is expired\r\n    /// @param tokenId The NFT to get the user address for\r\n    /// @return The user address for this NFT\r\n    function userOf(uint256 tokenId) \r\n        override \r\n        public \r\n        view \r\n        virtual \r\n        returns (address) \r\n    {\r\n        if (uint256(_users[tokenId].expires) >= block.timestamp) {\r\n            return _users[tokenId].user;\r\n        } else {\r\n            return address(0);\r\n        }\r\n    }\r\n\r\n    /// @notice Get the user expires of an NFT\r\n    /// @dev The zero value indicates that there is no user\r\n    /// @param tokenId The NFT to get the user expires for\r\n    /// @return The user expires for this NFT\r\n    function userExpires(uint256 tokenId)\r\n        override\r\n        public\r\n        view\r\n        virtual\r\n        returns (uint256)\r\n    {\r\n        return _users[tokenId].expires;\r\n    }\r\n\r\n\r\n    /// @dev See {IERC165-supportsInterface}.\r\n    function supportsInterface(bytes4 interfaceId) \r\n        public \r\n        view \r\n        virtual \r\n        override(ERC721, IERC165)\r\n        returns (bool) \r\n    {\r\n        return interfaceId == type(IERC4907).interfaceId || super.supportsInterface(interfaceId);\r\n    }\r\n\r\n    /// @dev Hook that is called before any token transfer.\r\n    function _beforeTokenTransfer(\r\n        address from,\r\n        address to,\r\n        uint256 tokenId,\r\n        uint\r\n    ) internal virtual override{\r\n        super._beforeTokenTransfer(from, to, tokenId, 1);\r\n\r\n        if (from != to && _users[tokenId].user != address(0)) {\r\n            delete _users[tokenId];\r\n            emit UpdateUser(tokenId, address(0), 0);\r\n        }\r\n    }\r\n}",
  "sourcePath": "C:/Users/maxek/Desktop/Sergeich/contracts/EIPs/ERC4907.sol",
  "compiler": {
    "name": "solc",
    "version": "0.8.6+commit.0e36fba0.mod.Emscripten.clang"
  },
  "schemaVersion": "2.0.1",
  "updatedAt": "2023-03-01T14:36:12.837Z"
}