{
  "contractName": "NFTRentable",
  "abi": [
    {
      "inputs": [
        {
          "internalType": "string",
          "name": "_name",
          "type": "string"
        },
        {
          "internalType": "string",
          "name": "_symbol",
          "type": "string"
        },
        {
          "internalType": "address",
          "name": "_ownable",
          "type": "address"
        }
      ],
      "stateMutability": "nonpayable",
      "type": "constructor"
    },
    {
      "anonymous": false,
      "inputs": [
        {
          "indexed": true,
          "internalType": "address",
          "name": "owner",
          "type": "address"
        },
        {
          "indexed": true,
          "internalType": "address",
          "name": "approved",
          "type": "address"
        },
        {
          "indexed": true,
          "internalType": "uint256",
          "name": "tokenId",
          "type": "uint256"
        }
      ],
      "name": "Approval",
      "type": "event",
      "stateMutability": "nonpayable"
    },
    {
      "anonymous": false,
      "inputs": [
        {
          "indexed": true,
          "internalType": "address",
          "name": "owner",
          "type": "address"
        },
        {
          "indexed": true,
          "internalType": "address",
          "name": "operator",
          "type": "address"
        },
        {
          "indexed": false,
          "internalType": "bool",
          "name": "approved",
          "type": "bool"
        }
      ],
      "name": "ApprovalForAll",
      "type": "event",
      "stateMutability": "nonpayable"
    },
    {
      "anonymous": false,
      "inputs": [
        {
          "indexed": true,
          "internalType": "address",
          "name": "from",
          "type": "address"
        },
        {
          "indexed": true,
          "internalType": "address",
          "name": "to",
          "type": "address"
        },
        {
          "indexed": true,
          "internalType": "uint256",
          "name": "tokenId",
          "type": "uint256"
        }
      ],
      "name": "Transfer",
      "type": "event",
      "stateMutability": "nonpayable"
    },
    {
      "anonymous": false,
      "inputs": [
        {
          "indexed": true,
          "internalType": "uint256",
          "name": "tokenId",
          "type": "uint256"
        },
        {
          "indexed": true,
          "internalType": "address",
          "name": "user",
          "type": "address"
        },
        {
          "indexed": false,
          "internalType": "uint64",
          "name": "expires",
          "type": "uint64"
        }
      ],
      "name": "UpdateUser",
      "type": "event",
      "stateMutability": "nonpayable"
    },
    {
      "inputs": [
        {
          "internalType": "address",
          "name": "to",
          "type": "address"
        },
        {
          "internalType": "uint256",
          "name": "tokenId",
          "type": "uint256"
        }
      ],
      "name": "approve",
      "outputs": [],
      "stateMutability": "nonpayable",
      "type": "function"
    },
    {
      "inputs": [
        {
          "internalType": "address",
          "name": "owner",
          "type": "address"
        }
      ],
      "name": "balanceOf",
      "outputs": [
        {
          "internalType": "uint256",
          "name": "",
          "type": "uint256"
        }
      ],
      "stateMutability": "view",
      "type": "function"
    },
    {
      "inputs": [
        {
          "internalType": "uint256",
          "name": "tokenId",
          "type": "uint256"
        }
      ],
      "name": "getApproved",
      "outputs": [
        {
          "internalType": "address",
          "name": "",
          "type": "address"
        }
      ],
      "stateMutability": "view",
      "type": "function"
    },
    {
      "inputs": [
        {
          "internalType": "address",
          "name": "owner",
          "type": "address"
        },
        {
          "internalType": "address",
          "name": "operator",
          "type": "address"
        }
      ],
      "name": "isApprovedForAll",
      "outputs": [
        {
          "internalType": "bool",
          "name": "",
          "type": "bool"
        }
      ],
      "stateMutability": "view",
      "type": "function"
    },
    {
      "inputs": [
        {
          "internalType": "address",
          "name": "to",
          "type": "address"
        },
        {
          "internalType": "string",
          "name": "uri",
          "type": "string"
        }
      ],
      "name": "mint",
      "outputs": [
        {
          "internalType": "uint256",
          "name": "tokenId",
          "type": "uint256"
        }
      ],
      "stateMutability": "nonpayable",
      "type": "function"
    },
    {
      "inputs": [],
      "name": "name",
      "outputs": [
        {
          "internalType": "string",
          "name": "",
          "type": "string"
        }
      ],
      "stateMutability": "view",
      "type": "function"
    },
    {
      "inputs": [
        {
          "internalType": "uint256",
          "name": "tokenId",
          "type": "uint256"
        }
      ],
      "name": "ownerOf",
      "outputs": [
        {
          "internalType": "address",
          "name": "",
          "type": "address"
        }
      ],
      "stateMutability": "view",
      "type": "function"
    },
    {
      "inputs": [
        {
          "internalType": "address",
          "name": "from",
          "type": "address"
        },
        {
          "internalType": "address",
          "name": "to",
          "type": "address"
        },
        {
          "internalType": "uint256",
          "name": "tokenId",
          "type": "uint256"
        }
      ],
      "name": "safeTransferFrom",
      "outputs": [],
      "stateMutability": "nonpayable",
      "type": "function"
    },
    {
      "inputs": [
        {
          "internalType": "address",
          "name": "from",
          "type": "address"
        },
        {
          "internalType": "address",
          "name": "to",
          "type": "address"
        },
        {
          "internalType": "uint256",
          "name": "tokenId",
          "type": "uint256"
        },
        {
          "internalType": "bytes",
          "name": "data",
          "type": "bytes"
        }
      ],
      "name": "safeTransferFrom",
      "outputs": [],
      "stateMutability": "nonpayable",
      "type": "function"
    },
    {
      "inputs": [
        {
          "internalType": "address",
          "name": "operator",
          "type": "address"
        },
        {
          "internalType": "bool",
          "name": "approved",
          "type": "bool"
        }
      ],
      "name": "setApprovalForAll",
      "outputs": [],
      "stateMutability": "nonpayable",
      "type": "function"
    },
    {
      "inputs": [
        {
          "internalType": "address",
          "name": "_ownable",
          "type": "address"
        }
      ],
      "name": "setOwnable",
      "outputs": [],
      "stateMutability": "nonpayable",
      "type": "function"
    },
    {
      "inputs": [
        {
          "internalType": "uint256",
          "name": "tokenId",
          "type": "uint256"
        },
        {
          "internalType": "address",
          "name": "user",
          "type": "address"
        },
        {
          "internalType": "uint64",
          "name": "expires",
          "type": "uint64"
        }
      ],
      "name": "setUser",
      "outputs": [],
      "stateMutability": "nonpayable",
      "type": "function"
    },
    {
      "inputs": [
        {
          "internalType": "bytes4",
          "name": "interfaceId",
          "type": "bytes4"
        }
      ],
      "name": "supportsInterface",
      "outputs": [
        {
          "internalType": "bool",
          "name": "",
          "type": "bool"
        }
      ],
      "stateMutability": "view",
      "type": "function"
    },
    {
      "inputs": [],
      "name": "symbol",
      "outputs": [
        {
          "internalType": "string",
          "name": "",
          "type": "string"
        }
      ],
      "stateMutability": "view",
      "type": "function"
    },
    {
      "inputs": [
        {
          "internalType": "uint256",
          "name": "tokenId",
          "type": "uint256"
        }
      ],
      "name": "tokenURI",
      "outputs": [
        {
          "internalType": "string",
          "name": "",
          "type": "string"
        }
      ],
      "stateMutability": "view",
      "type": "function"
    },
    {
      "inputs": [
        {
          "internalType": "address",
          "name": "from",
          "type": "address"
        },
        {
          "internalType": "address",
          "name": "to",
          "type": "address"
        },
        {
          "internalType": "uint256",
          "name": "tokenId",
          "type": "uint256"
        }
      ],
      "name": "transferFrom",
      "outputs": [],
      "stateMutability": "nonpayable",
      "type": "function"
    },
    {
      "inputs": [
        {
          "internalType": "uint256",
          "name": "tokenId",
          "type": "uint256"
        }
      ],
      "name": "userExpires",
      "outputs": [
        {
          "internalType": "uint256",
          "name": "",
          "type": "uint256"
        }
      ],
      "stateMutability": "view",
      "type": "function"
    },
    {
      "inputs": [
        {
          "internalType": "uint256",
          "name": "tokenId",
          "type": "uint256"
        }
      ],
      "name": "userOf",
      "outputs": [
        {
          "internalType": "address",
          "name": "",
          "type": "address"
        }
      ],
      "stateMutability": "view",
      "type": "function"
    }
  ],
  "bytecode": "0x60806040523480156200001157600080fd5b50d380156200001f57600080fd5b50d280156200002d57600080fd5b506040516200383738038062003837833981810160405281019062000053919062000229565b8282818181600090805190602001906200006f929190620000d7565b50806001908051906020019062000088929190620000d7565b505050505080600860006101000a81548173ffffffffffffffffffffffffffffffffffffffff021916908373ffffffffffffffffffffffffffffffffffffffff160217905550505050620004b6565b828054620000e590620003ad565b90600052602060002090601f01602090048101928262000109576000855562000155565b82601f106200012457805160ff191683800117855562000155565b8280016001018555821562000155579182015b828111156200015457825182559160200191906001019062000137565b5b50905062000164919062000168565b5090565b5b808211156200018357600081600090555060010162000169565b5090565b60006200019e6200019884620002ec565b620002c3565b905082815260208101848484011115620001bd57620001bc6200047c565b5b620001ca84828562000377565b509392505050565b600081519050620001e3816200049c565b620001ee8162000322565b905092915050565b600082601f8301126200020e576200020d62000477565b5b81516200022084826020860162000187565b91505092915050565b60008060006060848603121562000245576200024462000486565b5b600084015167ffffffffffffffff81111562000266576200026562000481565b5b6200027486828701620001f6565b935050602084015167ffffffffffffffff81111562000298576200029762000481565b5b620002a686828701620001f6565b9250506040620002b986828701620001d2565b9150509250925092565b6000620002cf620002e2565b9050620002dd8282620003e3565b919050565b6000604051905090565b600067ffffffffffffffff8211156200030a576200030962000448565b5b62000315826200048b565b9050602081019050919050565b60006200032f8262000336565b9050919050565b600073ffffffffffffffffffffffffffffffffffffffff82169050919050565b600074ffffffffffffffffffffffffffffffffffffffffff82169050919050565b60005b83811015620003975780820151818401526020810190506200037a565b83811115620003a7576000848401525b50505050565b60006002820490506001821680620003c657607f821691505b60208210811415620003dd57620003dc62000419565b5b50919050565b620003ee826200048b565b810181811067ffffffffffffffff8211171562000410576200040f62000448565b5b80604052505050565b7f4e487b7100000000000000000000000000000000000000000000000000000000600052602260045260246000fd5b7f4e487b7100000000000000000000000000000000000000000000000000000000600052604160045260246000fd5b600080fd5b600080fd5b600080fd5b600080fd5b6000601f19601f8301169050919050565b620004a78162000356565b8114620004b357600080fd5b50565b61337180620004c66000396000f3fe608060405234801561001057600080fd5b50d3801561001d57600080fd5b50d2801561002a57600080fd5b50600436106101305760003560e01c806395d89b41116100bc578063c4618d181161008b578063c4618d181461031d578063c87b56dd14610339578063d0def52114610369578063e030565e14610399578063e985e9c5146103b557610130565b806395d89b4114610297578063a22cb465146102b5578063b88d4fde146102d1578063c2f1f14a146102ed57610130565b806323b872dd1161010357806323b872dd146101cf57806342842e0e146101eb5780636352211e1461020757806370a08231146102375780638fc88c481461026757610130565b806301ffc9a71461013557806306fdde0314610165578063081812fc14610183578063095ea7b3146101b3575b600080fd5b61014f600480360381019061014a9190612514565b6103e5565b60405161015c9190612951565b60405180910390f35b61016d61045f565b60405161017a9190612987565b60405180910390f35b61019d6004803603810190610198919061256e565b6104f1565b6040516101aa91906128ea565b60405180910390f35b6101cd60048036038101906101c891906124a7565b610537565b005b6101e960048036038101906101e49190612335565b61064f565b005b61020560048036038101906102009190612335565b6106af565b005b610221600480360381019061021c919061256e565b6106cf565b60405161022e91906128ea565b60405180910390f35b610251600480360381019061024c91906122c8565b610756565b60405161025e9190612b69565b60405180910390f35b610281600480360381019061027c919061256e565b61080e565b60405161028e9190612b69565b60405180910390f35b61029f61084c565b6040516102ac9190612987565b60405180910390f35b6102cf60048036038101906102ca919061240b565b6108de565b005b6102eb60048036038101906102e69190612388565b6108f4565b005b6103076004803603810190610302919061256e565b610956565b60405161031491906128ea565b60405180910390f35b610337600480360381019061033291906122c8565b6109db565b005b610353600480360381019061034e919061256e565b610ad3565b6040516103609190612987565b60405180910390f35b610383600480360381019061037e919061244b565b610be6565b6040516103909190612b69565b60405180910390f35b6103b360048036038101906103ae919061259b565b610ccc565b005b6103cf60048036038101906103ca91906122f5565b610e66565b6040516103dc9190612951565b60405180910390f35b60007fad092b5c000000000000000000000000000000000000000000000000000000007bffffffffffffffffffffffffffffffffffffffffffffffffffffffff1916827bffffffffffffffffffffffffffffffffffffffffffffffffffffffff19161480610458575061045782610efa565b5b9050919050565b60606000805461046e90612df0565b80601f016020809104026020016040519081016040528092919081815260200182805461049a90612df0565b80156104e75780601f106104bc576101008083540402835291602001916104e7565b820191906000526020600020905b8154815290600101906020018083116104ca57829003601f168201915b5050505050905090565b60006104fc82610fdc565b6004600083815260200190815260200160002060009054906101000a900473ffffffffffffffffffffffffffffffffffffffff169050919050565b6000610542826106cf565b90508073ffffffffffffffffffffffffffffffffffffffff168373ffffffffffffffffffffffffffffffffffffffff1614156105b3576040517f08c379a00000000000000000000000000000000000000000000000000000000081526004016105aa90612ae9565b60405180910390fd5b8073ffffffffffffffffffffffffffffffffffffffff166105d2611027565b73ffffffffffffffffffffffffffffffffffffffff1614806106015750610600816105fb611027565b610e66565b5b610640576040517f08c379a000000000000000000000000000000000000000000000000000000000815260040161063790612b09565b60405180910390fd5b61064a838361102f565b505050565b61066061065a611027565b826110e8565b61069f576040517f08c379a0000000000000000000000000000000000000000000000000000000008152600401610696906129a9565b60405180910390fd5b6106aa83838361117d565b505050565b6106ca838383604051806020016040528060008152506108f4565b505050565b6000806106db83611477565b9050600073ffffffffffffffffffffffffffffffffffffffff168173ffffffffffffffffffffffffffffffffffffffff16141561074d576040517f08c379a000000000000000000000000000000000000000000000000000000000815260040161074490612ac9565b60405180910390fd5b80915050919050565b60008073ffffffffffffffffffffffffffffffffffffffff168273ffffffffffffffffffffffffffffffffffffffff1614156107c7576040517f08c379a00000000000000000000000000000000000000000000000000000000081526004016107be90612a69565b60405180910390fd5b600360008373ffffffffffffffffffffffffffffffffffffffff1673ffffffffffffffffffffffffffffffffffffffff168152602001908152602001600020549050919050565b60006007600083815260200190815260200160002060000160149054906101000a900467ffffffffffffffff1667ffffffffffffffff169050919050565b60606001805461085b90612df0565b80601f016020809104026020016040519081016040528092919081815260200182805461088790612df0565b80156108d45780601f106108a9576101008083540402835291602001916108d4565b820191906000526020600020905b8154815290600101906020018083116108b757829003601f168201915b5050505050905090565b6108f06108e9611027565b83836114b4565b5050565b6109056108ff611027565b836110e8565b610944576040517f08c379a000000000000000000000000000000000000000000000000000000000815260040161093b906129a9565b60405180910390fd5b61095084848484611621565b50505050565b6000426007600084815260200190815260200160002060000160149054906101000a900467ffffffffffffffff1667ffffffffffffffff16106109d1576007600083815260200190815260200160002060000160009054906101000a900473ffffffffffffffffffffffffffffffffffffffff1690506109d6565b600090505b919050565b600860009054906101000a900473ffffffffffffffffffffffffffffffffffffffff1673ffffffffffffffffffffffffffffffffffffffff166375d211b3336040518263ffffffff1660e01b8152600401610a3691906128ea565b60206040518083038186803b158015610a4e57600080fd5b505afa158015610a62573d6000803e3d6000fd5b505050506040513d601f19601f82011682018060405250810190610a8691906124e7565b610a8f57600080fd5b80600860006101000a81548173ffffffffffffffffffffffffffffffffffffffff021916908373ffffffffffffffffffffffffffffffffffffffff16021790555050565b6060610ade82610fdc565b6000600660008481526020019081526020016000208054610afe90612df0565b80601f0160208091040260200160405190810160405280929190818152602001828054610b2a90612df0565b8015610b775780601f10610b4c57610100808354040283529160200191610b77565b820191906000526020600020905b815481529060010190602001808311610b5a57829003601f168201915b505050505090506000610b8861167d565b9050600081511415610b9e578192505050610be1565b600082511115610bd3578082604051602001610bbb9291906128c6565b60405160208183030381529060405292505050610be1565b610bdc84611694565b925050505b919050565b6000600860009054906101000a900473ffffffffffffffffffffffffffffffffffffffff1673ffffffffffffffffffffffffffffffffffffffff166375d211b3336040518263ffffffff1660e01b8152600401610c4391906128ea565b60206040518083038186803b158015610c5b57600080fd5b505afa158015610c6f573d6000803e3d6000fd5b505050506040513d601f19601f82011682018060405250810190610c9391906124e7565b610c9c57600080fd5b610ca660096116fc565b610cb06009611712565b9050610cbc8382611720565b610cc6818361193e565b92915050565b6000600760008581526020019081526020016000209050610ced33856110e8565b610d2c576040517f08c379a0000000000000000000000000000000000000000000000000000000008152600401610d2390612b29565b60405180910390fd5b600073ffffffffffffffffffffffffffffffffffffffff16610d4d85610956565b73ffffffffffffffffffffffffffffffffffffffff1614610da3576040517f08c379a0000000000000000000000000000000000000000000000000000000008152600401610d9a90612b49565b60405180910390fd5b828160000160006101000a81548173ffffffffffffffffffffffffffffffffffffffff021916908373ffffffffffffffffffffffffffffffffffffffff160217905550818160000160146101000a81548167ffffffffffffffff021916908367ffffffffffffffff1602179055508273ffffffffffffffffffffffffffffffffffffffff16847f4e06b4e7000e659094299b3533b47b6aa8ad048e95e872d23d1f4ee55af89cfe84604051610e589190612b84565b60405180910390a350505050565b6000600560008473ffffffffffffffffffffffffffffffffffffffff1673ffffffffffffffffffffffffffffffffffffffff16815260200190815260200160002060008373ffffffffffffffffffffffffffffffffffffffff1673ffffffffffffffffffffffffffffffffffffffff16815260200190815260200160002060009054906101000a900460ff16905092915050565b60007f80ac58cd000000000000000000000000000000000000000000000000000000007bffffffffffffffffffffffffffffffffffffffffffffffffffffffff1916827bffffffffffffffffffffffffffffffffffffffffffffffffffffffff19161480610fc557507f5b5e139f000000000000000000000000000000000000000000000000000000007bffffffffffffffffffffffffffffffffffffffffffffffffffffffff1916827bffffffffffffffffffffffffffffffffffffffffffffffffffffffff1916145b80610fd55750610fd4826119b2565b5b9050919050565b610fe581611a1c565b611024576040517f08c379a000000000000000000000000000000000000000000000000000000000815260040161101b90612ac9565b60405180910390fd5b50565b600033905090565b816004600083815260200190815260200160002060006101000a81548173ffffffffffffffffffffffffffffffffffffffff021916908373ffffffffffffffffffffffffffffffffffffffff160217905550808273ffffffffffffffffffffffffffffffffffffffff166110a2836106cf565b73ffffffffffffffffffffffffffffffffffffffff167f8c5be1e5ebec7d5bd14f71427d1e84f3dd0314c0f7b2291e5b200ac8c7c3b92560405160405180910390a45050565b6000806110f4836106cf565b90508073ffffffffffffffffffffffffffffffffffffffff168473ffffffffffffffffffffffffffffffffffffffff16148061113657506111358185610e66565b5b8061117457508373ffffffffffffffffffffffffffffffffffffffff1661115c846104f1565b73ffffffffffffffffffffffffffffffffffffffff16145b91505092915050565b8273ffffffffffffffffffffffffffffffffffffffff1661119d826106cf565b73ffffffffffffffffffffffffffffffffffffffff16146111f3576040517f08c379a00000000000000000000000000000000000000000000000000000000081526004016111ea906129e9565b60405180910390fd5b600073ffffffffffffffffffffffffffffffffffffffff168273ffffffffffffffffffffffffffffffffffffffff161415611263576040517f08c379a000000000000000000000000000000000000000000000000000000000815260040161125a90612a29565b60405180910390fd5b6112708383836001611a5d565b8273ffffffffffffffffffffffffffffffffffffffff16611290826106cf565b73ffffffffffffffffffffffffffffffffffffffff16146112e6576040517f08c379a00000000000000000000000000000000000000000000000000000000081526004016112dd906129e9565b60405180910390fd5b6004600082815260200190815260200160002060006101000a81549073ffffffffffffffffffffffffffffffffffffffff02191690556001600360008573ffffffffffffffffffffffffffffffffffffffff1673ffffffffffffffffffffffffffffffffffffffff168152602001908152602001600020600082825403925050819055506001600360008473ffffffffffffffffffffffffffffffffffffffff1673ffffffffffffffffffffffffffffffffffffffff16815260200190815260200160002060008282540192505081905550816002600083815260200190815260200160002060006101000a81548173ffffffffffffffffffffffffffffffffffffffff021916908373ffffffffffffffffffffffffffffffffffffffff160217905550808273ffffffffffffffffffffffffffffffffffffffff168473ffffffffffffffffffffffffffffffffffffffff167fddf252ad1be2c89b69c2b068fc378daa952ba7f163c4a11628f55a4df523b3ef60405160405180910390a46114728383836001611bbe565b505050565b60006002600083815260200190815260200160002060009054906101000a900473ffffffffffffffffffffffffffffffffffffffff169050919050565b8173ffffffffffffffffffffffffffffffffffffffff168373ffffffffffffffffffffffffffffffffffffffff161415611523576040517f08c379a000000000000000000000000000000000000000000000000000000000815260040161151a90612a49565b60405180910390fd5b80600560008573ffffffffffffffffffffffffffffffffffffffff1673ffffffffffffffffffffffffffffffffffffffff16815260200190815260200160002060008473ffffffffffffffffffffffffffffffffffffffff1673ffffffffffffffffffffffffffffffffffffffff16815260200190815260200160002060006101000a81548160ff0219169083151502179055508173ffffffffffffffffffffffffffffffffffffffff168373ffffffffffffffffffffffffffffffffffffffff167f17307eab39ab6107e8899845ad3d59bd9653f200f220920489ca2b5937696c31836040516116149190612951565b60405180910390a3505050565b61162c84848461117d565b61163884848484611bc4565b611677576040517f08c379a000000000000000000000000000000000000000000000000000000000815260040161166e906129c9565b60405180910390fd5b50505050565b606060405180602001604052806000815250905090565b606061169f82610fdc565b60006116a961167d565b905060008151116116c957604051806020016040528060008152506116f4565b806116d384611d56565b6040516020016116e49291906128c6565b6040516020818303038152906040525b915050919050565b6001816000016000828254019250508190555050565b600081600001549050919050565b600073ffffffffffffffffffffffffffffffffffffffff168273ffffffffffffffffffffffffffffffffffffffff161415611790576040517f08c379a000000000000000000000000000000000000000000000000000000000815260040161178790612aa9565b60405180910390fd5b61179981611a1c565b156117d9576040517f08c379a00000000000000000000000000000000000000000000000000000000081526004016117d090612a09565b60405180910390fd5b6117e7600083836001611a5d565b6117f081611a1c565b15611830576040517f08c379a000000000000000000000000000000000000000000000000000000000815260040161182790612a09565b60405180910390fd5b6001600360008473ffffffffffffffffffffffffffffffffffffffff1673ffffffffffffffffffffffffffffffffffffffff16815260200190815260200160002060008282540192505081905550816002600083815260200190815260200160002060006101000a81548173ffffffffffffffffffffffffffffffffffffffff021916908373ffffffffffffffffffffffffffffffffffffffff160217905550808273ffffffffffffffffffffffffffffffffffffffff16600073ffffffffffffffffffffffffffffffffffffffff167fddf252ad1be2c89b69c2b068fc378daa952ba7f163c4a11628f55a4df523b3ef60405160405180910390a461193a600083836001611bbe565b5050565b61194782611a1c565b611986576040517f08c379a000000000000000000000000000000000000000000000000000000000815260040161197d90612a89565b60405180910390fd5b806006600084815260200190815260200160002090805190602001906119ad9291906120a7565b505050565b60007f01ffc9a7000000000000000000000000000000000000000000000000000000007bffffffffffffffffffffffffffffffffffffffffffffffffffffffff1916827bffffffffffffffffffffffffffffffffffffffffffffffffffffffff1916149050919050565b60008073ffffffffffffffffffffffffffffffffffffffff16611a3e83611477565b73ffffffffffffffffffffffffffffffffffffffff1614159050919050565b611a6a8484846001611e2e565b8273ffffffffffffffffffffffffffffffffffffffff168473ffffffffffffffffffffffffffffffffffffffff1614158015611b095750600073ffffffffffffffffffffffffffffffffffffffff166007600084815260200190815260200160002060000160009054906101000a900473ffffffffffffffffffffffffffffffffffffffff1673ffffffffffffffffffffffffffffffffffffffff1614155b15611bb85760076000838152602001908152602001600020600080820160006101000a81549073ffffffffffffffffffffffffffffffffffffffff02191690556000820160146101000a81549067ffffffffffffffff02191690555050600073ffffffffffffffffffffffffffffffffffffffff16827f4e06b4e7000e659094299b3533b47b6aa8ad048e95e872d23d1f4ee55af89cfe6000604051611baf919061296c565b60405180910390a35b50505050565b50505050565b6000808473ffffffffffffffffffffffffffffffffffffffff163b1115611d49578373ffffffffffffffffffffffffffffffffffffffff1663150b7a02611c09611027565b8786866040518563ffffffff1660e01b8152600401611c2b9493929190612905565b602060405180830381600087803b158015611c4557600080fd5b505af1925050508015611c7657506040513d601f19601f82011682018060405250810190611c739190612541565b60015b611cf9573d8060008114611ca6576040519150601f19603f3d011682016040523d82523d6000602084013e611cab565b606091505b50600081511415611cf1576040517f08c379a0000000000000000000000000000000000000000000000000000000008152600401611ce8906129c9565b60405180910390fd5b805181602001fd5b63150b7a0260e01b7bffffffffffffffffffffffffffffffffffffffffffffffffffffffff1916817bffffffffffffffffffffffffffffffffffffffffffffffffffffffff191614915050611d4e565b600190505b949350505050565b606060006001611d6584611f54565b01905060008167ffffffffffffffff811115611d8457611d83612ee0565b5b6040519080825280601f01601f191660200182016040528015611db65781602001600182028036833780820191505090505b509050600082602001820190505b600115611e23578080600190039150507f3031323334353637383961626364656600000000000000000000000000000000600a86061a8153600a8581611e0d57611e0c612e82565b5b0494506000851415611e1e57611e23565b611dc4565b819350505050919050565b6001811115611f4e57600073ffffffffffffffffffffffffffffffffffffffff168473ffffffffffffffffffffffffffffffffffffffff1614611ec25780600360008673ffffffffffffffffffffffffffffffffffffffff1673ffffffffffffffffffffffffffffffffffffffff1681526020019081526020016000206000828254611eba9190612cbf565b925050819055505b600073ffffffffffffffffffffffffffffffffffffffff168373ffffffffffffffffffffffffffffffffffffffff1614611f4d5780600360008573ffffffffffffffffffffffffffffffffffffffff1673ffffffffffffffffffffffffffffffffffffffff1681526020019081526020016000206000828254611f459190612c69565b925050819055505b5b50505050565b600080600090507a184f03e93ff9f4daa797ed6e38ed64bf6a1f0100000000000000008310611fb2577a184f03e93ff9f4daa797ed6e38ed64bf6a1f0100000000000000008381611fa857611fa7612e82565b5b0492506040810190505b6d04ee2d6d415b85acef81000000008310611fef576d04ee2d6d415b85acef81000000008381611fe557611fe4612e82565b5b0492506020810190505b662386f26fc10000831061201e57662386f26fc10000838161201457612013612e82565b5b0492506010810190505b6305f5e1008310612047576305f5e100838161203d5761203c612e82565b5b0492506008810190505b612710831061206c57612710838161206257612061612e82565b5b0492506004810190505b6064831061208f576064838161208557612084612e82565b5b0492506002810190505b600a831061209e576001810190505b80915050919050565b8280546120b390612df0565b90600052602060002090601f0160209004810192826120d5576000855561211c565b82601f106120ee57805160ff191683800117855561211c565b8280016001018555821561211c579182015b8281111561211b578251825591602001919060010190612100565b5b509050612129919061212d565b5090565b5b8082111561214657600081600090555060010161212e565b5090565b600061215d61215884612bc4565b612b9f565b90508281526020810184848401111561217957612178612f14565b5b612184848285612dae565b509392505050565b600061219f61219a84612bf5565b612b9f565b9050828152602081018484840111156121bb576121ba612f14565b5b6121c6848285612dae565b509392505050565b6000813590506121dd816132c8565b6121e681612cf3565b905092915050565b6000813590506121fd816132df565b92915050565b600081519050612212816132df565b92915050565b600081359050612227816132f6565b92915050565b60008151905061223c816132f6565b92915050565b600082601f83011261225757612256612f0f565b5b813561226784826020860161214a565b91505092915050565b600082601f83011261228557612284612f0f565b5b813561229584826020860161218c565b91505092915050565b6000813590506122ad8161330d565b92915050565b6000813590506122c281613324565b92915050565b6000602082840312156122de576122dd612f1e565b5b60006122ec848285016121ce565b91505092915050565b6000806040838503121561230c5761230b612f1e565b5b600061231a858286016121ce565b925050602061232b858286016121ce565b9150509250929050565b60008060006060848603121561234e5761234d612f1e565b5b600061235c868287016121ce565b935050602061236d868287016121ce565b925050604061237e8682870161229e565b9150509250925092565b600080600080608085870312156123a2576123a1612f1e565b5b60006123b0878288016121ce565b94505060206123c1878288016121ce565b93505060406123d28782880161229e565b925050606085013567ffffffffffffffff8111156123f3576123f2612f19565b5b6123ff87828801612242565b91505092959194509250565b6000806040838503121561242257612421612f1e565b5b6000612430858286016121ce565b9250506020612441858286016121ee565b9150509250929050565b6000806040838503121561246257612461612f1e565b5b6000612470858286016121ce565b925050602083013567ffffffffffffffff81111561249157612490612f19565b5b61249d85828601612270565b9150509250929050565b600080604083850312156124be576124bd612f1e565b5b60006124cc858286016121ce565b92505060206124dd8582860161229e565b9150509250929050565b6000602082840312156124fd576124fc612f1e565b5b600061250b84828501612203565b91505092915050565b60006020828403121561252a57612529612f1e565b5b600061253884828501612218565b91505092915050565b60006020828403121561255757612556612f1e565b5b60006125658482850161222d565b91505092915050565b60006020828403121561258457612583612f1e565b5b60006125928482850161229e565b91505092915050565b6000806000606084860312156125b4576125b3612f1e565b5b60006125c28682870161229e565b93505060206125d3868287016121ce565b92505060406125e4868287016122b3565b9150509250925092565b6125f781612cf3565b82525050565b61260681612d05565b82525050565b600061261782612c26565b6126218185612c3c565b9350612631818560208601612dbd565b61263a81612f23565b840191505092915050565b61264e81612d9c565b82525050565b600061265f82612c31565b6126698185612c4d565b9350612679818560208601612dbd565b61268281612f23565b840191505092915050565b600061269882612c31565b6126a28185612c5e565b93506126b2818560208601612dbd565b80840191505092915050565b60006126cb602d83612c4d565b91506126d682612f34565b604082019050919050565b60006126ee603283612c4d565b91506126f982612f83565b604082019050919050565b6000612711602583612c4d565b915061271c82612fd2565b604082019050919050565b6000612734601c83612c4d565b915061273f82613021565b602082019050919050565b6000612757602483612c4d565b91506127628261304a565b604082019050919050565b600061277a601983612c4d565b915061278582613099565b602082019050919050565b600061279d602983612c4d565b91506127a8826130c2565b604082019050919050565b60006127c0602e83612c4d565b91506127cb82613111565b604082019050919050565b60006127e3602083612c4d565b91506127ee82613160565b602082019050919050565b6000612806601883612c4d565b915061281182613189565b602082019050919050565b6000612829602183612c4d565b9150612834826131b2565b604082019050919050565b600061284c603d83612c4d565b915061285782613201565b604082019050919050565b600061286f603183612c4d565b915061287a82613250565b604082019050919050565b6000612892601083612c4d565b915061289d8261329f565b602082019050919050565b6128b181612d7e565b82525050565b6128c081612d88565b82525050565b60006128d2828561268d565b91506128de828461268d565b91508190509392505050565b60006020820190506128ff60008301846125ee565b92915050565b600060808201905061291a60008301876125ee565b61292760208301866125ee565b61293460408301856128a8565b8181036060830152612946818461260c565b905095945050505050565b600060208201905061296660008301846125fd565b92915050565b60006020820190506129816000830184612645565b92915050565b600060208201905081810360008301526129a18184612654565b905092915050565b600060208201905081810360008301526129c2816126be565b9050919050565b600060208201905081810360008301526129e2816126e1565b9050919050565b60006020820190508181036000830152612a0281612704565b9050919050565b60006020820190508181036000830152612a2281612727565b9050919050565b60006020820190508181036000830152612a428161274a565b9050919050565b60006020820190508181036000830152612a628161276d565b9050919050565b60006020820190508181036000830152612a8281612790565b9050919050565b60006020820190508181036000830152612aa2816127b3565b9050919050565b60006020820190508181036000830152612ac2816127d6565b9050919050565b60006020820190508181036000830152612ae2816127f9565b9050919050565b60006020820190508181036000830152612b028161281c565b9050919050565b60006020820190508181036000830152612b228161283f565b9050919050565b60006020820190508181036000830152612b4281612862565b9050919050565b60006020820190508181036000830152612b6281612885565b9050919050565b6000602082019050612b7e60008301846128a8565b92915050565b6000602082019050612b9960008301846128b7565b92915050565b6000612ba9612bba565b9050612bb58282612e22565b919050565b6000604051905090565b600067ffffffffffffffff821115612bdf57612bde612ee0565b5b612be882612f23565b9050602081019050919050565b600067ffffffffffffffff821115612c1057612c0f612ee0565b5b612c1982612f23565b9050602081019050919050565b600081519050919050565b600081519050919050565b600082825260208201905092915050565b600082825260208201905092915050565b600081905092915050565b6000612c7482612d7e565b9150612c7f83612d7e565b9250827fffffffffffffffffffffffffffffffffffffffffffffffffffffffffffffffff03821115612cb457612cb3612e53565b5b828201905092915050565b6000612cca82612d7e565b9150612cd583612d7e565b925082821015612ce857612ce7612e53565b5b828203905092915050565b6000612cfe82612d3d565b9050919050565b60008115159050919050565b60007fffffffff0000000000000000000000000000000000000000000000000000000082169050919050565b600073ffffffffffffffffffffffffffffffffffffffff82169050919050565b600074ffffffffffffffffffffffffffffffffffffffffff82169050919050565b6000819050919050565b600067ffffffffffffffff82169050919050565b6000612da782612d88565b9050919050565b82818337600083830152505050565b60005b83811015612ddb578082015181840152602081019050612dc0565b83811115612dea576000848401525b50505050565b60006002820490506001821680612e0857607f821691505b60208210811415612e1c57612e1b612eb1565b5b50919050565b612e2b82612f23565b810181811067ffffffffffffffff82111715612e4a57612e49612ee0565b5b80604052505050565b7f4e487b7100000000000000000000000000000000000000000000000000000000600052601160045260246000fd5b7f4e487b7100000000000000000000000000000000000000000000000000000000600052601260045260246000fd5b7f4e487b7100000000000000000000000000000000000000000000000000000000600052602260045260246000fd5b7f4e487b7100000000000000000000000000000000000000000000000000000000600052604160045260246000fd5b600080fd5b600080fd5b600080fd5b600080fd5b6000601f19601f8301169050919050565b7f4552433732313a2063616c6c6572206973206e6f7420746f6b656e206f776e6560008201527f72206f7220617070726f76656400000000000000000000000000000000000000602082015250565b7f4552433732313a207472616e7366657220746f206e6f6e20455243373231526560008201527f63656976657220696d706c656d656e7465720000000000000000000000000000602082015250565b7f4552433732313a207472616e736665722066726f6d20696e636f72726563742060008201527f6f776e6572000000000000000000000000000000000000000000000000000000602082015250565b7f4552433732313a20746f6b656e20616c7265616479206d696e74656400000000600082015250565b7f4552433732313a207472616e7366657220746f20746865207a65726f2061646460008201527f7265737300000000000000000000000000000000000000000000000000000000602082015250565b7f4552433732313a20617070726f766520746f2063616c6c657200000000000000600082015250565b7f4552433732313a2061646472657373207a65726f206973206e6f74206120766160008201527f6c6964206f776e65720000000000000000000000000000000000000000000000602082015250565b7f45524337323155524953746f726167653a2055524920736574206f66206e6f6e60008201527f6578697374656e7420746f6b656e000000000000000000000000000000000000602082015250565b7f4552433732313a206d696e7420746f20746865207a65726f2061646472657373600082015250565b7f4552433732313a20696e76616c696420746f6b656e2049440000000000000000600082015250565b7f4552433732313a20617070726f76616c20746f2063757272656e74206f776e6560008201527f7200000000000000000000000000000000000000000000000000000000000000602082015250565b7f4552433732313a20617070726f76652063616c6c6572206973206e6f7420746f60008201527f6b656e206f776e6572206f7220617070726f76656420666f7220616c6c000000602082015250565b7f4552433732313a207472616e736665722063616c6c6572206973206e6f74206f60008201527f776e6572206e6f7220617070726f766564000000000000000000000000000000602082015250565b7f7573657220616c72656164792073657400000000000000000000000000000000600082015250565b6132d181612d5d565b81146132dc57600080fd5b50565b6132e881612d05565b81146132f357600080fd5b50565b6132ff81612d11565b811461330a57600080fd5b50565b61331681612d7e565b811461332157600080fd5b50565b61332d81612d88565b811461333857600080fd5b5056fea26474726f6e5822122062025617ae10f003b27ba21211b7396ef4aadde754735660790b99ea99294bd364736f6c63430008060033",
  "source": "// SPDX-License-Identifier: MIT\r\npragma solidity 0.8;\r\n\r\nimport \"@openzeppelin/contracts/utils/Counters.sol\";\r\nimport \"../EIPs/ERC4907.sol\";\r\nimport \"../utils/OwnableLink.sol\";\r\n\r\ncontract NFTRentable is ERC4907, OwnableLink {\r\n\r\n    using Counters for Counters.Counter;\r\n\r\n    constructor(string memory _name, string memory _symbol, address _ownable) ERC4907(_name, _symbol) {\r\n        ownable = IOwnable(_ownable);\r\n    }\r\n    \r\n    Counters.Counter private _tokenIds;\r\n\r\n    function mint(address to, string memory uri) public CheckPerms returns(uint256 tokenId) {\r\n        _tokenIds.increment();\r\n        tokenId = _tokenIds.current();\r\n        _mint(to, tokenId);\r\n        _setTokenURI(tokenId, uri);\r\n    }\r\n}",
  "sourcePath": "C:/Users/maxek/Desktop/Sergeich/contracts/first/NFTRentable.sol",
  "compiler": {
    "name": "solc",
    "version": "0.8.6+commit.0e36fba0.mod.Emscripten.clang"
  },
  "schemaVersion": "2.0.1",
  "updatedAt": "2023-03-02T14:42:58.109Z"
}