{
  "contractName": "Ownable",
  "abi": [
    {
      "inputs": [],
      "stateMutability": "nonpayable",
      "type": "constructor"
    },
    {
      "inputs": [
        {
          "internalType": "address",
          "name": "admin",
          "type": "address"
        }
      ],
      "name": "addAdmin",
      "outputs": [],
      "stateMutability": "nonpayable",
      "type": "function"
    },
    {
      "inputs": [
        {
          "internalType": "address",
          "name": "",
          "type": "address"
        }
      ],
      "name": "admins",
      "outputs": [
        {
          "internalType": "bool",
          "name": "",
          "type": "bool"
        }
      ],
      "stateMutability": "view",
      "type": "function"
    },
    {
      "inputs": [
        {
          "internalType": "address",
          "name": "addr",
          "type": "address"
        }
      ],
      "name": "checkOwner",
      "outputs": [
        {
          "internalType": "bool",
          "name": "",
          "type": "bool"
        }
      ],
      "stateMutability": "view",
      "type": "function"
    },
    {
      "inputs": [
        {
          "internalType": "address",
          "name": "addr",
          "type": "address"
        }
      ],
      "name": "checkPerms",
      "outputs": [
        {
          "internalType": "bool",
          "name": "",
          "type": "bool"
        }
      ],
      "stateMutability": "view",
      "type": "function"
    },
    {
      "inputs": [],
      "name": "getWallet",
      "outputs": [
        {
          "internalType": "address",
          "name": "",
          "type": "address"
        }
      ],
      "stateMutability": "view",
      "type": "function"
    },
    {
      "inputs": [],
      "name": "owner",
      "outputs": [
        {
          "internalType": "address",
          "name": "",
          "type": "address"
        }
      ],
      "stateMutability": "view",
      "type": "function"
    },
    {
      "inputs": [
        {
          "internalType": "address",
          "name": "admin",
          "type": "address"
        }
      ],
      "name": "removeAdmin",
      "outputs": [],
      "stateMutability": "nonpayable",
      "type": "function"
    },
    {
      "inputs": [
        {
          "internalType": "address",
          "name": "newOwner",
          "type": "address"
        }
      ],
      "name": "setOwner",
      "outputs": [],
      "stateMutability": "nonpayable",
      "type": "function"
    },
    {
      "inputs": [
        {
          "internalType": "address",
          "name": "_wallet",
          "type": "address"
        }
      ],
      "name": "setWallet",
      "outputs": [],
      "stateMutability": "nonpayable",
      "type": "function"
    },
    {
      "inputs": [],
      "name": "wallet",
      "outputs": [
        {
          "internalType": "address",
          "name": "",
          "type": "address"
        }
      ],
      "stateMutability": "view",
      "type": "function"
    }
  ],
  "bytecode": "0x608060405234801561001057600080fd5b50d3801561001d57600080fd5b50d2801561002a57600080fd5b50336000806101000a81548173ffffffffffffffffffffffffffffffffffffffff021916908373ffffffffffffffffffffffffffffffffffffffff1602179055506001600260008060009054906101000a900473ffffffffffffffffffffffffffffffffffffffff1673ffffffffffffffffffffffffffffffffffffffff1673ffffffffffffffffffffffffffffffffffffffff16815260200190815260200160002060006101000a81548160ff021916908315150217905550610833806100f36000396000f3fe608060405234801561001057600080fd5b50d3801561001d57600080fd5b50d2801561002a57600080fd5b50600436106100b85760003560e01c80637048027511610080578063704802751461016157806375d211b31461017d5780638da5cb5b146101ad578063deaa59df146101cb578063e0e3671c146101e7576100b8565b806313299604146100bd57806313af4035146100db5780631785f53c146100f7578063429b62e514610113578063521eb27314610143575b600080fd5b6100c5610217565b6040516100d2919061074c565b60405180910390f35b6100f560048036038101906100f09190610701565b6102c0565b005b610111600480360381019061010c9190610701565b61035b565b005b61012d60048036038101906101289190610701565b61040e565b60405161013a9190610767565b60405180910390f35b61014b61042e565b604051610158919061074c565b60405180910390f35b61017b60048036038101906101769190610701565b610454565b005b61019760048036038101906101929190610701565b610507565b6040516101a49190610767565b60405180910390f35b6101b56105be565b6040516101c2919061074c565b60405180910390f35b6101e560048036038101906101e09190610701565b6105e2565b005b61020160048036038101906101fc9190610701565b61067e565b60405161020e9190610767565b60405180910390f35b60008073ffffffffffffffffffffffffffffffffffffffff16600160009054906101000a900473ffffffffffffffffffffffffffffffffffffffff1673ffffffffffffffffffffffffffffffffffffffff1614156102975760008054906101000a900473ffffffffffffffffffffffffffffffffffffffff1690506102bd565b600160009054906101000a900473ffffffffffffffffffffffffffffffffffffffff1690505b90565b3373ffffffffffffffffffffffffffffffffffffffff1660008054906101000a900473ffffffffffffffffffffffffffffffffffffffff1673ffffffffffffffffffffffffffffffffffffffff161461031857600080fd5b806000806101000a81548173ffffffffffffffffffffffffffffffffffffffff021916908373ffffffffffffffffffffffffffffffffffffffff16021790555050565b3373ffffffffffffffffffffffffffffffffffffffff1660008054906101000a900473ffffffffffffffffffffffffffffffffffffffff1673ffffffffffffffffffffffffffffffffffffffff16146103b357600080fd5b6000600260008373ffffffffffffffffffffffffffffffffffffffff1673ffffffffffffffffffffffffffffffffffffffff16815260200190815260200160002060006101000a81548160ff02191690831515021790555050565b60026020528060005260406000206000915054906101000a900460ff1681565b600160009054906101000a900473ffffffffffffffffffffffffffffffffffffffff1681565b3373ffffffffffffffffffffffffffffffffffffffff1660008054906101000a900473ffffffffffffffffffffffffffffffffffffffff1673ffffffffffffffffffffffffffffffffffffffff16146104ac57600080fd5b6001600260008373ffffffffffffffffffffffffffffffffffffffff1673ffffffffffffffffffffffffffffffffffffffff16815260200190815260200160002060006101000a81548160ff02191690831515021790555050565b6000600260008373ffffffffffffffffffffffffffffffffffffffff1673ffffffffffffffffffffffffffffffffffffffff16815260200190815260200160002060009054906101000a900460ff16806105ac57508173ffffffffffffffffffffffffffffffffffffffff1660008054906101000a900473ffffffffffffffffffffffffffffffffffffffff1673ffffffffffffffffffffffffffffffffffffffff16145b6105b557600080fd5b60019050919050565b60008054906101000a900473ffffffffffffffffffffffffffffffffffffffff1681565b3373ffffffffffffffffffffffffffffffffffffffff1660008054906101000a900473ffffffffffffffffffffffffffffffffffffffff1673ffffffffffffffffffffffffffffffffffffffff161461063a57600080fd5b80600160006101000a81548173ffffffffffffffffffffffffffffffffffffffff021916908373ffffffffffffffffffffffffffffffffffffffff16021790555050565b60008173ffffffffffffffffffffffffffffffffffffffff1660008054906101000a900473ffffffffffffffffffffffffffffffffffffffff1673ffffffffffffffffffffffffffffffffffffffff16146106d857600080fd5b60019050919050565b6000813590506106f0816107e6565b6106f981610782565b905092915050565b600060208284031215610717576107166107e1565b5b6000610725848285016106e1565b91505092915050565b61073781610782565b82525050565b61074681610794565b82525050565b6000602082019050610761600083018461072e565b92915050565b600060208201905061077c600083018461073d565b92915050565b600061078d826107a0565b9050919050565b60008115159050919050565b600073ffffffffffffffffffffffffffffffffffffffff82169050919050565b600074ffffffffffffffffffffffffffffffffffffffffff82169050919050565b600080fd5b6107ef816107c0565b81146107fa57600080fd5b5056fea26474726f6e58221220eb332af7b552be7dc351f7d68581e962a5288cd02dad55e9da8a5555fe9da49264736f6c63430008060033",
  "source": "// SPDX-License-Identifier: MIT\r\npragma solidity >= 0.8.0;\r\n\r\ncontract Ownable {\r\n    address public owner;\r\n    address public wallet;\r\n\r\n    constructor() {\r\n        owner = msg.sender;\r\n        admins[owner] = true;\r\n    }\r\n\r\n    mapping (address => bool) public admins;\r\n\r\n    modifier CheckPerms() {\r\n        require(admins[msg.sender] || owner == msg.sender);\r\n        _;\r\n    }\r\n\r\n    modifier CheckOwner() {\r\n        require(owner == msg.sender);\r\n        _;\r\n    }\r\n\r\n    function checkPerms(address addr) public view returns(bool){\r\n        require(admins[addr] || owner == addr);\r\n        return true;\r\n    }\r\n    function checkOwner(address addr) public view returns(bool){\r\n        require(owner == addr);\r\n        return true;\r\n    }\r\n\r\n    function getWallet() public view returns(address) {\r\n        if (wallet == address(0)) {\r\n            return owner;\r\n        } else {\r\n            return wallet;\r\n        }\r\n    }\r\n\r\n    function setWallet(address _wallet) public CheckOwner {\r\n        wallet = _wallet;\r\n    }\r\n\r\n    function setOwner(address newOwner) public CheckOwner {\r\n        owner = newOwner;\r\n    }\r\n\r\n    function addAdmin(address admin) public CheckOwner {\r\n        admins[admin] = true;\r\n    }\r\n\r\n    function removeAdmin(address admin) public CheckOwner {\r\n        admins[admin] = false;\r\n    }\r\n}",
  "sourcePath": "C:/Users/maxek/Desktop/Sergeich/contracts/utils/Ownable.sol",
  "compiler": {
    "name": "solc",
    "version": "0.8.6+commit.0e36fba0.mod.Emscripten.clang"
  },
  "schemaVersion": "2.0.1",
  "updatedAt": "2023-03-02T14:42:58.106Z"
}