{
  "contractName": "OwnableLink",
  "abi": [
    {
      "inputs": [
        {
          "internalType": "address",
          "name": "_ownable",
          "type": "address"
        }
      ],
      "name": "setOwnable",
      "outputs": [],
      "stateMutability": "nonpayable",
      "type": "function"
    }
  ],
  "bytecode": "0x608060405234801561001057600080fd5b50d3801561001d57600080fd5b50d2801561002a57600080fd5b506102dc8061003a6000396000f3fe608060405234801561001057600080fd5b50d3801561001d57600080fd5b50d2801561002a57600080fd5b50600436106100455760003560e01c8063c4618d181461004a575b600080fd5b610064600480360381019061005f9190610190565b610066565b005b60008054906101000a900473ffffffffffffffffffffffffffffffffffffffff1673ffffffffffffffffffffffffffffffffffffffff166375d211b3336040518263ffffffff1660e01b81526004016100bf91906101f9565b60206040518083038186803b1580156100d757600080fd5b505afa1580156100eb573d6000803e3d6000fd5b505050506040513d601f19601f8201168201806040525081019061010f91906101bd565b61011857600080fd5b806000806101000a81548173ffffffffffffffffffffffffffffffffffffffff021916908373ffffffffffffffffffffffffffffffffffffffff16021790555050565b60008135905061016a81610278565b61017381610214565b905092915050565b60008151905061018a8161028f565b92915050565b6000602082840312156101a6576101a5610273565b5b60006101b48482850161015b565b91505092915050565b6000602082840312156101d3576101d2610273565b5b60006101e18482850161017b565b91505092915050565b6101f381610214565b82525050565b600060208201905061020e60008301846101ea565b92915050565b600061021f82610232565b9050919050565b60008115159050919050565b600073ffffffffffffffffffffffffffffffffffffffff82169050919050565b600074ffffffffffffffffffffffffffffffffffffffffff82169050919050565b600080fd5b61028181610252565b811461028c57600080fd5b50565b61029881610226565b81146102a357600080fd5b5056fea26474726f6e58221220383e123adb1f9ab27f3895e579c1fe023f9fcea39a6459c5320c636b9336faef64736f6c63430008060033",
  "source": "// SPDX-License-Identifier: MIT\r\npragma solidity >= 0.8.0;\r\n\r\nimport \"./IOwnableLink.sol\";\r\nimport \"./IOwnable.sol\";\r\n\r\ncontract OwnableLink is IOwnableLink {\r\n    IOwnable ownable;\r\n\r\n    function setOwnable(address _ownable) public override CheckPerms {\r\n        ownable = IOwnable(_ownable);\r\n    }\r\n\r\n    modifier CheckPerms() {\r\n        require(ownable.checkPerms(msg.sender) );\r\n        _;\r\n    }\r\n\r\n    modifier CheckOwner() {\r\n        require(ownable.checkOwner(msg.sender));\r\n        _;\r\n    }\r\n}\r\n",
  "sourcePath": "C:/Users/maxek/Desktop/Sergeich/contracts/utils/OwnableLink.sol",
  "compiler": {
    "name": "solc",
    "version": "0.8.6+commit.0e36fba0.mod.Emscripten.clang"
  },
  "schemaVersion": "2.0.1",
  "updatedAt": "2023-03-01T22:25:31.127Z"
}