{
  "contractName": "RentMarket",
  "abi": [
    {
      "inputs": [
        {
          "internalType": "address",
          "name": "_owanble",
          "type": "address"
        }
      ],
      "stateMutability": "nonpayable",
      "type": "constructor"
    },
    {
      "inputs": [
        {
          "internalType": "uint256",
          "name": "lendId",
          "type": "uint256"
        }
      ],
      "name": "closeLend",
      "outputs": [],
      "stateMutability": "nonpayable",
      "type": "function"
    },
    {
      "inputs": [],
      "name": "getAvailableLends",
      "outputs": [
        {
          "components": [
            {
              "internalType": "uint256",
              "name": "id",
              "type": "uint256"
            },
            {
              "internalType": "uint256",
              "name": "tokenId",
              "type": "uint256"
            },
            {
              "internalType": "address",
              "name": "collectionAddress",
              "type": "address"
            },
            {
              "internalType": "string",
              "name": "tokenUri",
              "type": "string"
            },
            {
              "internalType": "address",
              "name": "owner",
              "type": "address"
            },
            {
              "internalType": "uint256",
              "name": "timeUnitSeconds",
              "type": "uint256"
            },
            {
              "internalType": "uint256",
              "name": "timeUnitPrice",
              "type": "uint256"
            },
            {
              "internalType": "uint256",
              "name": "timeUnitCount",
              "type": "uint256"
            },
            {
              "internalType": "uint256",
              "name": "startTimestamp",
              "type": "uint256"
            },
            {
              "internalType": "uint256",
              "name": "endTimestamp",
              "type": "uint256"
            },
            {
              "internalType": "uint256[]",
              "name": "rents",
              "type": "uint256[]"
            }
          ],
          "internalType": "struct IRentMarket.Lend[]",
          "name": "lends",
          "type": "tuple[]"
        }
      ],
      "stateMutability": "view",
      "type": "function"
    },
    {
      "inputs": [
        {
          "internalType": "uint256",
          "name": "lendId",
          "type": "uint256"
        }
      ],
      "name": "getAvailableStatus",
      "outputs": [
        {
          "internalType": "bool",
          "name": "available",
          "type": "bool"
        }
      ],
      "stateMutability": "view",
      "type": "function"
    },
    {
      "inputs": [
        {
          "internalType": "address",
          "name": "customer",
          "type": "address"
        }
      ],
      "name": "getCustomerRents",
      "outputs": [
        {
          "components": [
            {
              "internalType": "uint256",
              "name": "id",
              "type": "uint256"
            },
            {
              "internalType": "uint256",
              "name": "tokenId",
              "type": "uint256"
            },
            {
              "internalType": "address",
              "name": "collectionAddress",
              "type": "address"
            },
            {
              "internalType": "string",
              "name": "tokenUri",
              "type": "string"
            },
            {
              "internalType": "address",
              "name": "customer",
              "type": "address"
            },
            {
              "internalType": "uint256",
              "name": "lendId",
              "type": "uint256"
            },
            {
              "internalType": "uint256",
              "name": "timeUnitSeconds",
              "type": "uint256"
            },
            {
              "internalType": "uint256",
              "name": "timeUnitCount",
              "type": "uint256"
            },
            {
              "internalType": "uint256",
              "name": "startTimestamp",
              "type": "uint256"
            },
            {
              "internalType": "uint256",
              "name": "endTimestamp",
              "type": "uint256"
            }
          ],
          "internalType": "struct IRentMarket.Rent[]",
          "name": "rents",
          "type": "tuple[]"
        }
      ],
      "stateMutability": "view",
      "type": "function"
    },
    {
      "inputs": [
        {
          "internalType": "uint256",
          "name": "lendId",
          "type": "uint256"
        }
      ],
      "name": "getLendById",
      "outputs": [
        {
          "components": [
            {
              "internalType": "uint256",
              "name": "id",
              "type": "uint256"
            },
            {
              "internalType": "uint256",
              "name": "tokenId",
              "type": "uint256"
            },
            {
              "internalType": "address",
              "name": "collectionAddress",
              "type": "address"
            },
            {
              "internalType": "string",
              "name": "tokenUri",
              "type": "string"
            },
            {
              "internalType": "address",
              "name": "owner",
              "type": "address"
            },
            {
              "internalType": "uint256",
              "name": "timeUnitSeconds",
              "type": "uint256"
            },
            {
              "internalType": "uint256",
              "name": "timeUnitPrice",
              "type": "uint256"
            },
            {
              "internalType": "uint256",
              "name": "timeUnitCount",
              "type": "uint256"
            },
            {
              "internalType": "uint256",
              "name": "startTimestamp",
              "type": "uint256"
            },
            {
              "internalType": "uint256",
              "name": "endTimestamp",
              "type": "uint256"
            },
            {
              "internalType": "uint256[]",
              "name": "rents",
              "type": "uint256[]"
            }
          ],
          "internalType": "struct IRentMarket.Lend",
          "name": "lend",
          "type": "tuple"
        }
      ],
      "stateMutability": "view",
      "type": "function"
    },
    {
      "inputs": [],
      "name": "getLends",
      "outputs": [
        {
          "components": [
            {
              "internalType": "uint256",
              "name": "id",
              "type": "uint256"
            },
            {
              "internalType": "uint256",
              "name": "tokenId",
              "type": "uint256"
            },
            {
              "internalType": "address",
              "name": "collectionAddress",
              "type": "address"
            },
            {
              "internalType": "string",
              "name": "tokenUri",
              "type": "string"
            },
            {
              "internalType": "address",
              "name": "owner",
              "type": "address"
            },
            {
              "internalType": "uint256",
              "name": "timeUnitSeconds",
              "type": "uint256"
            },
            {
              "internalType": "uint256",
              "name": "timeUnitPrice",
              "type": "uint256"
            },
            {
              "internalType": "uint256",
              "name": "timeUnitCount",
              "type": "uint256"
            },
            {
              "internalType": "uint256",
              "name": "startTimestamp",
              "type": "uint256"
            },
            {
              "internalType": "uint256",
              "name": "endTimestamp",
              "type": "uint256"
            },
            {
              "internalType": "uint256[]",
              "name": "rents",
              "type": "uint256[]"
            }
          ],
          "internalType": "struct IRentMarket.Lend[]",
          "name": "lends",
          "type": "tuple[]"
        }
      ],
      "stateMutability": "view",
      "type": "function"
    },
    {
      "inputs": [],
      "name": "getLendsCount",
      "outputs": [
        {
          "internalType": "uint256",
          "name": "lendCount",
          "type": "uint256"
        }
      ],
      "stateMutability": "view",
      "type": "function"
    },
    {
      "inputs": [
        {
          "internalType": "address",
          "name": "owner",
          "type": "address"
        }
      ],
      "name": "getOwnerLends",
      "outputs": [
        {
          "components": [
            {
              "internalType": "uint256",
              "name": "id",
              "type": "uint256"
            },
            {
              "internalType": "uint256",
              "name": "tokenId",
              "type": "uint256"
            },
            {
              "internalType": "address",
              "name": "collectionAddress",
              "type": "address"
            },
            {
              "internalType": "string",
              "name": "tokenUri",
              "type": "string"
            },
            {
              "internalType": "address",
              "name": "owner",
              "type": "address"
            },
            {
              "internalType": "uint256",
              "name": "timeUnitSeconds",
              "type": "uint256"
            },
            {
              "internalType": "uint256",
              "name": "timeUnitPrice",
              "type": "uint256"
            },
            {
              "internalType": "uint256",
              "name": "timeUnitCount",
              "type": "uint256"
            },
            {
              "internalType": "uint256",
              "name": "startTimestamp",
              "type": "uint256"
            },
            {
              "internalType": "uint256",
              "name": "endTimestamp",
              "type": "uint256"
            },
            {
              "internalType": "uint256[]",
              "name": "rents",
              "type": "uint256[]"
            }
          ],
          "internalType": "struct IRentMarket.Lend[]",
          "name": "lends",
          "type": "tuple[]"
        }
      ],
      "stateMutability": "view",
      "type": "function"
    },
    {
      "inputs": [
        {
          "internalType": "uint256",
          "name": "rentId",
          "type": "uint256"
        }
      ],
      "name": "getRentById",
      "outputs": [
        {
          "components": [
            {
              "internalType": "uint256",
              "name": "id",
              "type": "uint256"
            },
            {
              "internalType": "uint256",
              "name": "tokenId",
              "type": "uint256"
            },
            {
              "internalType": "address",
              "name": "collectionAddress",
              "type": "address"
            },
            {
              "internalType": "string",
              "name": "tokenUri",
              "type": "string"
            },
            {
              "internalType": "address",
              "name": "customer",
              "type": "address"
            },
            {
              "internalType": "uint256",
              "name": "lendId",
              "type": "uint256"
            },
            {
              "internalType": "uint256",
              "name": "timeUnitSeconds",
              "type": "uint256"
            },
            {
              "internalType": "uint256",
              "name": "timeUnitCount",
              "type": "uint256"
            },
            {
              "internalType": "uint256",
              "name": "startTimestamp",
              "type": "uint256"
            },
            {
              "internalType": "uint256",
              "name": "endTimestamp",
              "type": "uint256"
            }
          ],
          "internalType": "struct IRentMarket.Rent",
          "name": "rent",
          "type": "tuple"
        }
      ],
      "stateMutability": "view",
      "type": "function"
    },
    {
      "inputs": [],
      "name": "getRents",
      "outputs": [
        {
          "components": [
            {
              "internalType": "uint256",
              "name": "id",
              "type": "uint256"
            },
            {
              "internalType": "uint256",
              "name": "tokenId",
              "type": "uint256"
            },
            {
              "internalType": "address",
              "name": "collectionAddress",
              "type": "address"
            },
            {
              "internalType": "string",
              "name": "tokenUri",
              "type": "string"
            },
            {
              "internalType": "address",
              "name": "customer",
              "type": "address"
            },
            {
              "internalType": "uint256",
              "name": "lendId",
              "type": "uint256"
            },
            {
              "internalType": "uint256",
              "name": "timeUnitSeconds",
              "type": "uint256"
            },
            {
              "internalType": "uint256",
              "name": "timeUnitCount",
              "type": "uint256"
            },
            {
              "internalType": "uint256",
              "name": "startTimestamp",
              "type": "uint256"
            },
            {
              "internalType": "uint256",
              "name": "endTimestamp",
              "type": "uint256"
            }
          ],
          "internalType": "struct IRentMarket.Rent[]",
          "name": "rents",
          "type": "tuple[]"
        }
      ],
      "stateMutability": "view",
      "type": "function"
    },
    {
      "inputs": [],
      "name": "getRentsCount",
      "outputs": [
        {
          "internalType": "uint256",
          "name": "rentCount",
          "type": "uint256"
        }
      ],
      "stateMutability": "view",
      "type": "function"
    },
    {
      "inputs": [],
      "name": "getTokenPayment",
      "outputs": [
        {
          "internalType": "address",
          "name": "token",
          "type": "address"
        }
      ],
      "stateMutability": "view",
      "type": "function"
    },
    {
      "inputs": [
        {
          "internalType": "uint256",
          "name": "tokenId",
          "type": "uint256"
        },
        {
          "internalType": "address",
          "name": "collectionAddress",
          "type": "address"
        },
        {
          "internalType": "uint256",
          "name": "timeUnitSeconds",
          "type": "uint256"
        },
        {
          "internalType": "uint256",
          "name": "timeUnitPrice",
          "type": "uint256"
        },
        {
          "internalType": "uint256",
          "name": "timeUnitCount",
          "type": "uint256"
        }
      ],
      "name": "initLend",
      "outputs": [
        {
          "internalType": "uint256",
          "name": "lendId",
          "type": "uint256"
        }
      ],
      "stateMutability": "nonpayable",
      "type": "function"
    },
    {
      "inputs": [
        {
          "internalType": "uint256",
          "name": "lendId",
          "type": "uint256"
        },
        {
          "internalType": "uint256",
          "name": "timeUnitCount",
          "type": "uint256"
        }
      ],
      "name": "initRent",
      "outputs": [
        {
          "internalType": "uint256",
          "name": "rentId",
          "type": "uint256"
        }
      ],
      "stateMutability": "nonpayable",
      "type": "function"
    },
    {
      "inputs": [
        {
          "internalType": "address",
          "name": "spender",
          "type": "address"
        },
        {
          "internalType": "uint256",
          "name": "tokenId",
          "type": "uint256"
        },
        {
          "internalType": "address",
          "name": "collectionAddress",
          "type": "address"
        }
      ],
      "name": "isApprovedOrOwner",
      "outputs": [
        {
          "internalType": "bool",
          "name": "",
          "type": "bool"
        }
      ],
      "stateMutability": "view",
      "type": "function"
    },
    {
      "inputs": [
        {
          "internalType": "address",
          "name": "_ownable",
          "type": "address"
        }
      ],
      "name": "setOwnable",
      "outputs": [],
      "stateMutability": "nonpayable",
      "type": "function"
    },
    {
      "inputs": [
        {
          "internalType": "address",
          "name": "token",
          "type": "address"
        }
      ],
      "name": "setTokenPayment",
      "outputs": [],
      "stateMutability": "nonpayable",
      "type": "function"
    }
  ],
  "bytecode": "0x60806040523480156200001157600080fd5b50d380156200001f57600080fd5b50d280156200002d57600080fd5b50604051620044ba380380620044ba8339818101604052810190620000539190620000be565b806000806101000a81548173ffffffffffffffffffffffffffffffffffffffff021916908373ffffffffffffffffffffffffffffffffffffffff1602179055505062000164565b600081519050620000ab816200014a565b620000b681620000f0565b905092915050565b600060208284031215620000d757620000d662000145565b5b6000620000e7848285016200009a565b91505092915050565b6000620000fd8262000104565b9050919050565b600073ffffffffffffffffffffffffffffffffffffffff82169050919050565b600074ffffffffffffffffffffffffffffffffffffffffff82169050919050565b600080fd5b620001558162000124565b81146200016157600080fd5b50565b61434680620001746000396000f3fe608060405234801561001057600080fd5b50d3801561001d57600080fd5b50d2801561002a57600080fd5b50600436106101255760003560e01c8063740754e0116100bc578063c1e3425f1161008b578063c1e3425f1461030e578063c4618d181461032a578063ca0e6ef014610346578063d9a7cae514610376578063e51198c31461039457610125565b8063740754e01461026057806378ef6604146102905780638fd71658146102ae578063c1e2fd7b146102de57610125565b806344f0811e116100f857806344f0811e146101b45780635488fe62146101e45780635a76d182146102145780636625804d1461023057610125565b806301e1d3451461012a5780633855a3291461015a578063395e96f4146101785780633c5ea0f314610196575b600080fd5b610144600480360381019061013f9190613348565b6103b2565b6040516101519190613bcc565b60405180910390f35b610162610481565b60405161016f9190613b88565b60405180910390f35b61018061072f565b60405161018d9190613b88565b60405180910390f35b61019e610b9b565b6040516101ab9190613baa565b60405180910390f35b6101ce60048036038101906101c99190613348565b610df1565b6040516101db9190613cc7565b60405180910390f35b6101fe60048036038101906101f99190613225565b610ffb565b60405161020b9190613baa565b60405180910390f35b61022e60048036038101906102299190613348565b6114c9565b005b61024a6004803603810190610245919061327f565b611841565b6040516102579190613bcc565b60405180910390f35b61027a6004803603810190610275919061341d565b611a5e565b6040516102879190613d0b565b60405180910390f35b610298612040565b6040516102a59190613d0b565b60405180910390f35b6102c860048036038101906102c39190613225565b612051565b6040516102d59190613b88565b60405180910390f35b6102f860048036038101906102f39190613348565b612577565b6040516103059190613ce9565b60405180910390f35b61032860048036038101906103239190613225565b612729565b005b610344600480360381019061033f9190613225565b61281f565b005b610360600480360381019061035b91906133a2565b612914565b60405161036d9190613d0b565b60405180910390f35b61037e612ee2565b60405161038b9190613d0b565b60405180910390f35b61039c612ef3565b6040516103a99190613b0d565b60405180910390f35b6000806005600084815260200190815260200160002090506103fd3082600101548360020160009054906101000a900473ffffffffffffffffffffffffffffffffffffffff16611841565b1561047a57428160090154111561047957600081600a01805490501461046e57426006600083600a01600185600a018054905061043a9190613f3b565b8154811061044b5761044a614129565b5b906000526020600020015481526020019081526020016000206009015410610471565b60015b91505061047c565b5b505b919050565b6060600061048f6002612f1d565b90508067ffffffffffffffff8111156104ab576104aa614158565b5b6040519080825280602002602001820160405280156104e457816020015b6104d1612f41565b8152602001906001900390816104c95790505b50915060005b8181101561072a57600560006001836105039190613e8b565b81526020019081526020016000206040518061016001604052908160008201548152602001600182015481526020016002820160009054906101000a900473ffffffffffffffffffffffffffffffffffffffff1673ffffffffffffffffffffffffffffffffffffffff1673ffffffffffffffffffffffffffffffffffffffff1681526020016003820180546105979061401f565b80601f01602080910402602001604051908101604052809291908181526020018280546105c39061401f565b80156106105780601f106105e557610100808354040283529160200191610610565b820191906000526020600020905b8154815290600101906020018083116105f357829003601f168201915b505050505081526020016004820160009054906101000a900473ffffffffffffffffffffffffffffffffffffffff1673ffffffffffffffffffffffffffffffffffffffff1673ffffffffffffffffffffffffffffffffffffffff1681526020016005820154815260200160068201548152602001600782015481526020016008820154815260200160098201548152602001600a82018054806020026020016040519081016040528092919081815260200182805480156106f057602002820191906000526020600020905b8154815260200190600101908083116106dc575b50505050508152505083828151811061070c5761070b614129565b5b6020026020010181905250808061072290614082565b9150506104ea565b505090565b6060600061073d6002612f1d565b905060008060005b838110156107b45761076260018261075d9190613e8b565b6103b2565b156107a15742600560006001846107799190613e8b565b81526020019081526020016000206009015411156107a057828061079c90614082565b9350505b5b80806107ac90614082565b915050610745565b508167ffffffffffffffff8111156107cf576107ce614158565b5b60405190808252806020026020018201604052801561080857816020015b6107f5612f41565b8152602001906001900390816107ed5790505b50935060005b83811015610b945761082b6001826108269190613e8b565b6103b2565b15610b815742600560006001846108429190613e8b565b8152602001908152602001600020600901541115610b80576005600060018361086b9190613e8b565b81526020019081526020016000206040518061016001604052908160008201548152602001600182015481526020016002820160009054906101000a900473ffffffffffffffffffffffffffffffffffffffff1673ffffffffffffffffffffffffffffffffffffffff1673ffffffffffffffffffffffffffffffffffffffff1681526020016003820180546108ff9061401f565b80601f016020809104026020016040519081016040528092919081815260200182805461092b9061401f565b80156109785780601f1061094d57610100808354040283529160200191610978565b820191906000526020600020905b81548152906001019060200180831161095b57829003601f168201915b505050505081526020016004820160009054906101000a900473ffffffffffffffffffffffffffffffffffffffff1673ffffffffffffffffffffffffffffffffffffffff1673ffffffffffffffffffffffffffffffffffffffff1681526020016005820154815260200160068201548152602001600782015481526020016008820154815260200160098201548152602001600a8201805480602002602001604051908101604052809291908181526020018280548015610a5857602002820191906000526020600020905b815481526020019060010190808311610a44575b505050505081525050858381518110610a7457610a73614129565b5b60200260200101819052506000858381518110610a9457610a93614129565b5b60200260200101516040015190508073ffffffffffffffffffffffffffffffffffffffff1663c87b56dd878581518110610ad157610ad0614129565b5b6020026020010151602001516040518263ffffffff1660e01b8152600401610af99190613d0b565b60006040518083038186803b158015610b1157600080fd5b505afa158015610b25573d6000803e3d6000fd5b505050506040513d6000823e3d601f19601f82011682018060405250810190610b4e91906132ff565b868481518110610b6157610b60614129565b5b6020026020010151606001819052508280610b7b90614082565b935050505b5b8080610b8c90614082565b91505061080e565b5050505090565b60606000610ba96003612f1d565b90508067ffffffffffffffff811115610bc557610bc4614158565b5b604051908082528060200260200182016040528015610bfe57816020015b610beb612fc7565b815260200190600190039081610be35790505b50915060005b81811015610dec5760066000600183610c1d9190613e8b565b81526020019081526020016000206040518061014001604052908160008201548152602001600182015481526020016002820160009054906101000a900473ffffffffffffffffffffffffffffffffffffffff1673ffffffffffffffffffffffffffffffffffffffff1673ffffffffffffffffffffffffffffffffffffffff168152602001600382018054610cb19061401f565b80601f0160208091040260200160405190810160405280929190818152602001828054610cdd9061401f565b8015610d2a5780601f10610cff57610100808354040283529160200191610d2a565b820191906000526020600020905b815481529060010190602001808311610d0d57829003601f168201915b505050505081526020016004820160009054906101000a900473ffffffffffffffffffffffffffffffffffffffff1673ffffffffffffffffffffffffffffffffffffffff1673ffffffffffffffffffffffffffffffffffffffff16815260200160058201548152602001600682015481526020016007820154815260200160088201548152602001600982015481525050838281518110610dce57610dcd614129565b5b60200260200101819052508080610de490614082565b915050610c04565b505090565b610df9612f41565b600560008381526020019081526020016000206040518061016001604052908160008201548152602001600182015481526020016002820160009054906101000a900473ffffffffffffffffffffffffffffffffffffffff1673ffffffffffffffffffffffffffffffffffffffff1673ffffffffffffffffffffffffffffffffffffffff168152602001600382018054610e929061401f565b80601f0160208091040260200160405190810160405280929190818152602001828054610ebe9061401f565b8015610f0b5780601f10610ee057610100808354040283529160200191610f0b565b820191906000526020600020905b815481529060010190602001808311610eee57829003601f168201915b505050505081526020016004820160009054906101000a900473ffffffffffffffffffffffffffffffffffffffff1673ffffffffffffffffffffffffffffffffffffffff1673ffffffffffffffffffffffffffffffffffffffff1681526020016005820154815260200160068201548152602001600782015481526020016008820154815260200160098201548152602001600a8201805480602002602001604051908101604052809291908181526020018280548015610feb57602002820191906000526020600020905b815481526020019060010190808311610fd7575b5050505050815250509050919050565b606060006110096003612f1d565b905060008060005b838110156110dc578573ffffffffffffffffffffffffffffffffffffffff16600660006001846110419190613e8b565b815260200190815260200160002060040160009054906101000a900473ffffffffffffffffffffffffffffffffffffffff1673ffffffffffffffffffffffffffffffffffffffff1614156110c95742600660006001846110a19190613e8b565b81526020019081526020016000206009015411156110c85782806110c490614082565b9350505b5b80806110d490614082565b915050611011565b508167ffffffffffffffff8111156110f7576110f6614158565b5b60405190808252806020026020018201604052801561113057816020015b61111d612fc7565b8152602001906001900390816111155790505b50935060005b838110156114c0578573ffffffffffffffffffffffffffffffffffffffff16600660006001846111669190613e8b565b815260200190815260200160002060040160009054906101000a900473ffffffffffffffffffffffffffffffffffffffff1673ffffffffffffffffffffffffffffffffffffffff1614156114ad5742600660006001846111c69190613e8b565b81526020019081526020016000206009015411156114ac57600660006001836111ef9190613e8b565b81526020019081526020016000206040518061014001604052908160008201548152602001600182015481526020016002820160009054906101000a900473ffffffffffffffffffffffffffffffffffffffff1673ffffffffffffffffffffffffffffffffffffffff1673ffffffffffffffffffffffffffffffffffffffff1681526020016003820180546112839061401f565b80601f01602080910402602001604051908101604052809291908181526020018280546112af9061401f565b80156112fc5780601f106112d1576101008083540402835291602001916112fc565b820191906000526020600020905b8154815290600101906020018083116112df57829003601f168201915b505050505081526020016004820160009054906101000a900473ffffffffffffffffffffffffffffffffffffffff1673ffffffffffffffffffffffffffffffffffffffff1673ffffffffffffffffffffffffffffffffffffffff168152602001600582015481526020016006820154815260200160078201548152602001600882015481526020016009820154815250508583815181106113a05761139f614129565b5b602002602001018190525060008583815181106113c0576113bf614129565b5b60200260200101516040015190508073ffffffffffffffffffffffffffffffffffffffff1663c87b56dd8785815181106113fd576113fc614129565b5b6020026020010151602001516040518263ffffffff1660e01b81526004016114259190613d0b565b60006040518083038186803b15801561143d57600080fd5b505afa158015611451573d6000803e3d6000fd5b505050506040513d6000823e3d601f19601f8201168201806040525081019061147a91906132ff565b86848151811061148d5761148c614129565b5b60200260200101516060018190525082806114a790614082565b935050505b5b80806114b890614082565b915050611136565b50505050919050565b6000600560008381526020019081526020016000206040518061016001604052908160008201548152602001600182015481526020016002820160009054906101000a900473ffffffffffffffffffffffffffffffffffffffff1673ffffffffffffffffffffffffffffffffffffffff1673ffffffffffffffffffffffffffffffffffffffff1681526020016003820180546115649061401f565b80601f01602080910402602001604051908101604052809291908181526020018280546115909061401f565b80156115dd5780601f106115b2576101008083540402835291602001916115dd565b820191906000526020600020905b8154815290600101906020018083116115c057829003601f168201915b505050505081526020016004820160009054906101000a900473ffffffffffffffffffffffffffffffffffffffff1673ffffffffffffffffffffffffffffffffffffffff1673ffffffffffffffffffffffffffffffffffffffff1681526020016005820154815260200160068201548152602001600782015481526020016008820154815260200160098201548152602001600a82018054806020026020016040519081016040528092919081815260200182805480156116bd57602002820191906000526020600020905b8154815260200190600101908083116116a9575b5050505050815250509050428161012001511061170f576040517f08c379a000000000000000000000000000000000000000000000000000000000815260040161170690613be7565b60405180910390fd5b6000805b8261014001515181116117855760066000846101400151838151811061173c5761173b614129565b5b60200260200101518152602001908152602001600020600701548360c001516117659190613ee1565b826117709190613e8b565b9150808061177d90614082565b915050611713565b50600160009054906101000a900473ffffffffffffffffffffffffffffffffffffffff1673ffffffffffffffffffffffffffffffffffffffff166323b872dd308460800151846040518463ffffffff1660e01b81526004016117e993929190613b51565b602060405180830381600087803b15801561180357600080fd5b505af1158015611817573d6000803e3d6000fd5b505050506040513d601f19601f8201168201806040525081019061183b91906132d2565b50505050565b60008082905060008173ffffffffffffffffffffffffffffffffffffffff16636352211e866040518263ffffffff1660e01b81526004016118829190613d0b565b60206040518083038186803b15801561189a57600080fd5b505afa1580156118ae573d6000803e3d6000fd5b505050506040513d601f19601f820116820180604052508101906118d29190613252565b90508073ffffffffffffffffffffffffffffffffffffffff168673ffffffffffffffffffffffffffffffffffffffff16148061199557508173ffffffffffffffffffffffffffffffffffffffff1663e985e9c582886040518363ffffffff1660e01b8152600401611944929190613b28565b60206040518083038186803b15801561195c57600080fd5b505afa158015611970573d6000803e3d6000fd5b505050506040513d601f19601f8201168201806040525081019061199491906132d2565b5b80611a5357508573ffffffffffffffffffffffffffffffffffffffff168273ffffffffffffffffffffffffffffffffffffffff1663081812fc876040518263ffffffff1660e01b81526004016119eb9190613d0b565b60206040518083038186803b158015611a0357600080fd5b505afa158015611a17573d6000803e3d6000fd5b505050506040513d601f19601f82011682018060405250810190611a3b9190613252565b73ffffffffffffffffffffffffffffffffffffffff16145b925050509392505050565b6000806005600085815260200190815260200160002090506000838260060154611a889190613ee1565b905042848360050154611a9b9190613ee1565b611aa59190613e8b565b826009015411611aea576040517f08c379a0000000000000000000000000000000000000000000000000000000008152600401611ae190613c87565b60405180910390fd5b3373ffffffffffffffffffffffffffffffffffffffff168260040160009054906101000a900473ffffffffffffffffffffffffffffffffffffffff1673ffffffffffffffffffffffffffffffffffffffff161415611b7d576040517f08c379a0000000000000000000000000000000000000000000000000000000008152600401611b7490613c07565b60405180910390fd5b611b86856103b2565b611bc5576040517f08c379a0000000000000000000000000000000000000000000000000000000008152600401611bbc90613c47565b60405180910390fd5b80600160009054906101000a900473ffffffffffffffffffffffffffffffffffffffff1673ffffffffffffffffffffffffffffffffffffffff1663dd62ed3e33306040518363ffffffff1660e01b8152600401611c23929190613b28565b60206040518083038186803b158015611c3b57600080fd5b505afa158015611c4f573d6000803e3d6000fd5b505050506040513d601f19601f82011682018060405250810190611c739190613375565b1015611cb4576040517f08c379a0000000000000000000000000000000000000000000000000000000008152600401611cab90613c27565b60405180910390fd5b611cbe6003612f2b565b611cc86003612f1d565b9250600033905060004290506000846005015487611ce69190613ee1565b82611cf19190613e8b565b905060008560020160009054906101000a900473ffffffffffffffffffffffffffffffffffffffff1690508073ffffffffffffffffffffffffffffffffffffffff1663e030565e876001015486856040518463ffffffff1660e01b8152600401611d5d93929190613d26565b600060405180830381600087803b158015611d7757600080fd5b505af1158015611d8b573d6000803e3d6000fd5b50505050600160009054906101000a900473ffffffffffffffffffffffffffffffffffffffff1673ffffffffffffffffffffffffffffffffffffffff166323b872dd3330886040518463ffffffff1660e01b8152600401611dee93929190613b51565b602060405180830381600087803b158015611e0857600080fd5b505af1158015611e1c573d6000803e3d6000fd5b505050506040513d601f19601f82011682018060405250810190611e4091906132d2565b50604051806101400160405280888152602001876001015481526020018760020160009054906101000a900473ffffffffffffffffffffffffffffffffffffffff1673ffffffffffffffffffffffffffffffffffffffff1681526020016040518060200160405280600081525081526020018573ffffffffffffffffffffffffffffffffffffffff1681526020018a8152602001876005015481526020018981526020018481526020018381525060066000898152602001908152602001600020600082015181600001556020820151816001015560408201518160020160006101000a81548173ffffffffffffffffffffffffffffffffffffffff021916908373ffffffffffffffffffffffffffffffffffffffff1602179055506060820151816003019080519060200190611f78929190613046565b5060808201518160040160006101000a81548173ffffffffffffffffffffffffffffffffffffffff021916908373ffffffffffffffffffffffffffffffffffffffff16021790555060a0820151816005015560c0820151816006015560e0820151816007015561010082015181600801556101208201518160090155905050600560008a8152602001908152602001600020600a0187908060018154018082558091505060019003906000526020600020016000909190919091505550505050505092915050565b600061204c6003612f1d565b905090565b6060600061205f6002612f1d565b905060008060005b83811015612132578573ffffffffffffffffffffffffffffffffffffffff16600560006001846120979190613e8b565b815260200190815260200160002060040160009054906101000a900473ffffffffffffffffffffffffffffffffffffffff1673ffffffffffffffffffffffffffffffffffffffff16141561211f5742600560006001846120f79190613e8b565b815260200190815260200160002060090154111561211e57828061211a90614082565b9350505b5b808061212a90614082565b915050612067565b508167ffffffffffffffff81111561214d5761214c614158565b5b60405190808252806020026020018201604052801561218657816020015b612173612f41565b81526020019060019003908161216b5790505b50935060005b8381101561256e578573ffffffffffffffffffffffffffffffffffffffff16600560006001846121bc9190613e8b565b815260200190815260200160002060040160009054906101000a900473ffffffffffffffffffffffffffffffffffffffff1673ffffffffffffffffffffffffffffffffffffffff16141561255b57426005600060018461221c9190613e8b565b815260200190815260200160002060090154111561255a57600560006001836122459190613e8b565b81526020019081526020016000206040518061016001604052908160008201548152602001600182015481526020016002820160009054906101000a900473ffffffffffffffffffffffffffffffffffffffff1673ffffffffffffffffffffffffffffffffffffffff1673ffffffffffffffffffffffffffffffffffffffff1681526020016003820180546122d99061401f565b80601f01602080910402602001604051908101604052809291908181526020018280546123059061401f565b80156123525780601f1061232757610100808354040283529160200191612352565b820191906000526020600020905b81548152906001019060200180831161233557829003601f168201915b505050505081526020016004820160009054906101000a900473ffffffffffffffffffffffffffffffffffffffff1673ffffffffffffffffffffffffffffffffffffffff1673ffffffffffffffffffffffffffffffffffffffff1681526020016005820154815260200160068201548152602001600782015481526020016008820154815260200160098201548152602001600a820180548060200260200160405190810160405280929190818152602001828054801561243257602002820191906000526020600020905b81548152602001906001019080831161241e575b50505050508152505085838151811061244e5761244d614129565b5b6020026020010181905250600085838151811061246e5761246d614129565b5b60200260200101516040015190508073ffffffffffffffffffffffffffffffffffffffff1663c87b56dd8785815181106124ab576124aa614129565b5b6020026020010151602001516040518263ffffffff1660e01b81526004016124d39190613d0b565b60006040518083038186803b1580156124eb57600080fd5b505afa1580156124ff573d6000803e3d6000fd5b505050506040513d6000823e3d601f19601f8201168201806040525081019061252891906132ff565b86848151811061253b5761253a614129565b5b602002602001015160600181905250828061255590614082565b935050505b5b808061256690614082565b91505061218c565b50505050919050565b61257f612fc7565b600660008381526020019081526020016000206040518061014001604052908160008201548152602001600182015481526020016002820160009054906101000a900473ffffffffffffffffffffffffffffffffffffffff1673ffffffffffffffffffffffffffffffffffffffff1673ffffffffffffffffffffffffffffffffffffffff1681526020016003820180546126189061401f565b80601f01602080910402602001604051908101604052809291908181526020018280546126449061401f565b80156126915780601f1061266657610100808354040283529160200191612691565b820191906000526020600020905b81548152906001019060200180831161267457829003601f168201915b505050505081526020016004820160009054906101000a900473ffffffffffffffffffffffffffffffffffffffff1673ffffffffffffffffffffffffffffffffffffffff1673ffffffffffffffffffffffffffffffffffffffff168152602001600582015481526020016006820154815260200160078201548152602001600882015481526020016009820154815250509050919050565b60008054906101000a900473ffffffffffffffffffffffffffffffffffffffff1673ffffffffffffffffffffffffffffffffffffffff166375d211b3336040518263ffffffff1660e01b81526004016127829190613b0d565b60206040518083038186803b15801561279a57600080fd5b505afa1580156127ae573d6000803e3d6000fd5b505050506040513d601f19601f820116820180604052508101906127d291906132d2565b6127db57600080fd5b80600160006101000a81548173ffffffffffffffffffffffffffffffffffffffff021916908373ffffffffffffffffffffffffffffffffffffffff16021790555050565b60008054906101000a900473ffffffffffffffffffffffffffffffffffffffff1673ffffffffffffffffffffffffffffffffffffffff166375d211b3336040518263ffffffff1660e01b81526004016128789190613b0d565b60206040518083038186803b15801561289057600080fd5b505afa1580156128a4573d6000803e3d6000fd5b505050506040513d601f19601f820116820180604052508101906128c891906132d2565b6128d157600080fd5b806000806101000a81548173ffffffffffffffffffffffffffffffffffffffff021916908373ffffffffffffffffffffffffffffffffffffffff16021790555050565b600080859050600073ffffffffffffffffffffffffffffffffffffffff168173ffffffffffffffffffffffffffffffffffffffff1663c2f1f14a896040518263ffffffff1660e01b815260040161296b9190613d0b565b60206040518083038186803b15801561298357600080fd5b505afa158015612997573d6000803e3d6000fd5b505050506040513d601f19601f820116820180604052508101906129bb9190613252565b73ffffffffffffffffffffffffffffffffffffffff161480612b1957508073ffffffffffffffffffffffffffffffffffffffff16636352211e886040518263ffffffff1660e01b8152600401612a119190613d0b565b60206040518083038186803b158015612a2957600080fd5b505afa158015612a3d573d6000803e3d6000fd5b505050506040513d601f19601f82011682018060405250810190612a619190613252565b73ffffffffffffffffffffffffffffffffffffffff168173ffffffffffffffffffffffffffffffffffffffff1663c2f1f14a896040518263ffffffff1660e01b8152600401612ab09190613d0b565b60206040518083038186803b158015612ac857600080fd5b505afa158015612adc573d6000803e3d6000fd5b505050506040513d601f19601f82011682018060405250810190612b009190613252565b73ffffffffffffffffffffffffffffffffffffffff1614155b612b58576040517f08c379a0000000000000000000000000000000000000000000000000000000008152600401612b4f90613ca7565b60405180910390fd5b60008173ffffffffffffffffffffffffffffffffffffffff16636352211e896040518263ffffffff1660e01b8152600401612b939190613d0b565b60206040518083038186803b158015612bab57600080fd5b505afa158015612bbf573d6000803e3d6000fd5b505050506040513d601f19601f82011682018060405250810190612be39190613252565b90503373ffffffffffffffffffffffffffffffffffffffff168173ffffffffffffffffffffffffffffffffffffffff1614612c53576040517f08c379a0000000000000000000000000000000000000000000000000000000008152600401612c4a90613c67565b60405180910390fd5b612c5d6002612f2b565b612c676002612f1d565b9250600042905060008786612c7c9190613ee1565b82612c879190613e8b565b905084600460008b73ffffffffffffffffffffffffffffffffffffffff1673ffffffffffffffffffffffffffffffffffffffff16815260200190815260200160002060008c8152602001908152602001600020819055506040518061016001604052808681526020018b81526020018a73ffffffffffffffffffffffffffffffffffffffff1681526020016040518060200160405280600081525081526020018473ffffffffffffffffffffffffffffffffffffffff168152602001898152602001888152602001878152602001838152602001828152602001600067ffffffffffffffff811115612d7c57612d7b614158565b5b604051908082528060200260200182016040528015612daa5781602001602082028036833780820191505090505b5081525060056000878152602001908152602001600020600082015181600001556020820151816001015560408201518160020160006101000a81548173ffffffffffffffffffffffffffffffffffffffff021916908373ffffffffffffffffffffffffffffffffffffffff1602179055506060820151816003019080519060200190612e38929190613046565b5060808201518160040160006101000a81548173ffffffffffffffffffffffffffffffffffffffff021916908373ffffffffffffffffffffffffffffffffffffffff16021790555060a0820151816005015560c0820151816006015560e082015181600701556101008201518160080155610120820151816009015561014082015181600a019080519060200190612ed19291906130cc565b509050505050505095945050505050565b6000612eee6002612f1d565b905090565b6000600160009054906101000a900473ffffffffffffffffffffffffffffffffffffffff16905090565b600081600001549050919050565b6001816000016000828254019250508190555050565b6040518061016001604052806000815260200160008152602001600073ffffffffffffffffffffffffffffffffffffffff16815260200160608152602001600073ffffffffffffffffffffffffffffffffffffffff1681526020016000815260200160008152602001600081526020016000815260200160008152602001606081525090565b6040518061014001604052806000815260200160008152602001600073ffffffffffffffffffffffffffffffffffffffff16815260200160608152602001600073ffffffffffffffffffffffffffffffffffffffff16815260200160008152602001600081526020016000815260200160008152602001600081525090565b8280546130529061401f565b90600052602060002090601f01602090048101928261307457600085556130bb565b82601f1061308d57805160ff19168380011785556130bb565b828001600101855582156130bb579182015b828111156130ba57825182559160200191906001019061309f565b5b5090506130c89190613119565b5090565b828054828255906000526020600020908101928215613108579160200282015b828111156131075782518255916020019190600101906130ec565b5b5090506131159190613119565b5090565b5b8082111561313257600081600090555060010161311a565b5090565b600061314961314484613d82565b613d5d565b9050828152602081018484840111156131655761316461418c565b5b613170848285613fec565b509392505050565b600081359050613187816142cb565b61319081613f6f565b905092915050565b6000815190506131a7816142cb565b6131b081613f6f565b905092915050565b6000815190506131c7816142e2565b92915050565b600082601f8301126131e2576131e1614187565b5b81516131f2848260208601613136565b91505092915050565b60008135905061320a816142f9565b92915050565b60008151905061321f816142f9565b92915050565b60006020828403121561323b5761323a614196565b5b600061324984828501613178565b91505092915050565b60006020828403121561326857613267614196565b5b600061327684828501613198565b91505092915050565b60008060006060848603121561329857613297614196565b5b60006132a686828701613178565b93505060206132b7868287016131fb565b92505060406132c886828701613178565b9150509250925092565b6000602082840312156132e8576132e7614196565b5b60006132f6848285016131b8565b91505092915050565b60006020828403121561331557613314614196565b5b600082015167ffffffffffffffff81111561333357613332614191565b5b61333f848285016131cd565b91505092915050565b60006020828403121561335e5761335d614196565b5b600061336c848285016131fb565b91505092915050565b60006020828403121561338b5761338a614196565b5b600061339984828501613210565b91505092915050565b600080600080600060a086880312156133be576133bd614196565b5b60006133cc888289016131fb565b95505060206133dd88828901613178565b94505060406133ee888289016131fb565b93505060606133ff888289016131fb565b9250506080613410888289016131fb565b9150509295509295909350565b6000806040838503121561343457613433614196565b5b6000613442858286016131fb565b9250506020613453858286016131fb565b9150509250929050565b60006134698383613740565b905092915050565b600061347d838361392c565b905092915050565b60006134918383613ae0565b60208301905092915050565b6134a681613f6f565b82525050565b6134b581613f6f565b82525050565b60006134c682613de3565b6134d08185613e36565b9350836020820285016134e285613db3565b8060005b8581101561351e57848403895281516134ff858261345d565b945061350a83613e0f565b925060208a019950506001810190506134e6565b50829750879550505050505092915050565b600061353b82613dee565b6135458185613e47565b93508360208202850161355785613dc3565b8060005b8581101561359357848403895281516135748582613471565b945061357f83613e1c565b925060208a0199505060018101905061355b565b50829750879550505050505092915050565b60006135b082613df9565b6135ba8185613e58565b93506135c583613dd3565b8060005b838110156135f65781516135dd8882613485565b97506135e883613e29565b9250506001810190506135c9565b5085935050505092915050565b61360c81613f81565b82525050565b600061361d82613e04565b6136278185613e69565b9350613637818560208601613fec565b6136408161419b565b840191505092915050565b6000613658600f83613e7a565b9150613663826141ac565b602082019050919050565b600061367b601983613e7a565b9150613686826141d5565b602082019050919050565b600061369e601383613e7a565b91506136a9826141fe565b602082019050919050565b60006136c1600c83613e7a565b91506136cc82614227565b602082019050919050565b60006136e4601583613e7a565b91506136ef82614250565b602082019050919050565b6000613707602083613e7a565b915061371282614279565b602082019050919050565b600061372a601783613e7a565b9150613735826142a2565b602082019050919050565b6000610160830160008301516137596000860182613ae0565b50602083015161376c6020860182613ae0565b50604083015161377f604086018261349d565b50606083015184820360608601526137978282613612565b91505060808301516137ac608086018261349d565b5060a08301516137bf60a0860182613ae0565b5060c08301516137d260c0860182613ae0565b5060e08301516137e560e0860182613ae0565b506101008301516137fa610100860182613ae0565b5061012083015161380f610120860182613ae0565b5061014083015184820361014086015261382982826135a5565b9150508091505092915050565b60006101608301600083015161384f6000860182613ae0565b5060208301516138626020860182613ae0565b506040830151613875604086018261349d565b506060830151848203606086015261388d8282613612565b91505060808301516138a2608086018261349d565b5060a08301516138b560a0860182613ae0565b5060c08301516138c860c0860182613ae0565b5060e08301516138db60e0860182613ae0565b506101008301516138f0610100860182613ae0565b50610120830151613905610120860182613ae0565b5061014083015184820361014086015261391f82826135a5565b9150508091505092915050565b6000610140830160008301516139456000860182613ae0565b5060208301516139586020860182613ae0565b50604083015161396b604086018261349d565b50606083015184820360608601526139838282613612565b9150506080830151613998608086018261349d565b5060a08301516139ab60a0860182613ae0565b5060c08301516139be60c0860182613ae0565b5060e08301516139d160e0860182613ae0565b506101008301516139e6610100860182613ae0565b506101208301516139fb610120860182613ae0565b508091505092915050565b600061014083016000830151613a1f6000860182613ae0565b506020830151613a326020860182613ae0565b506040830151613a45604086018261349d565b5060608301518482036060860152613a5d8282613612565b9150506080830151613a72608086018261349d565b5060a0830151613a8560a0860182613ae0565b5060c0830151613a9860c0860182613ae0565b5060e0830151613aab60e0860182613ae0565b50610100830151613ac0610100860182613ae0565b50610120830151613ad5610120860182613ae0565b508091505092915050565b613ae981613fce565b82525050565b613af881613fce565b82525050565b613b0781613fd8565b82525050565b6000602082019050613b2260008301846134ac565b92915050565b6000604082019050613b3d60008301856134ac565b613b4a60208301846134ac565b9392505050565b6000606082019050613b6660008301866134ac565b613b7360208301856134ac565b613b806040830184613aef565b949350505050565b60006020820190508181036000830152613ba281846134bb565b905092915050565b60006020820190508181036000830152613bc48184613530565b905092915050565b6000602082019050613be16000830184613603565b92915050565b60006020820190508181036000830152613c008161364b565b9050919050565b60006020820190508181036000830152613c208161366e565b9050919050565b60006020820190508181036000830152613c4081613691565b9050919050565b60006020820190508181036000830152613c60816136b4565b9050919050565b60006020820190508181036000830152613c80816136d7565b9050919050565b60006020820190508181036000830152613ca0816136fa565b9050919050565b60006020820190508181036000830152613cc08161371d565b9050919050565b60006020820190508181036000830152613ce18184613836565b905092915050565b60006020820190508181036000830152613d038184613a06565b905092915050565b6000602082019050613d206000830184613aef565b92915050565b6000606082019050613d3b6000830186613aef565b613d4860208301856134ac565b613d556040830184613afe565b949350505050565b6000613d67613d78565b9050613d738282614051565b919050565b6000604051905090565b600067ffffffffffffffff821115613d9d57613d9c614158565b5b613da68261419b565b9050602081019050919050565b6000819050602082019050919050565b6000819050602082019050919050565b6000819050602082019050919050565b600081519050919050565b600081519050919050565b600081519050919050565b600081519050919050565b6000602082019050919050565b6000602082019050919050565b6000602082019050919050565b600082825260208201905092915050565b600082825260208201905092915050565b600082825260208201905092915050565b600082825260208201905092915050565b600082825260208201905092915050565b6000613e9682613fce565b9150613ea183613fce565b9250827fffffffffffffffffffffffffffffffffffffffffffffffffffffffffffffffff03821115613ed657613ed56140cb565b5b828201905092915050565b6000613eec82613fce565b9150613ef783613fce565b9250817fffffffffffffffffffffffffffffffffffffffffffffffffffffffffffffffff0483118215151615613f3057613f2f6140cb565b5b828202905092915050565b6000613f4682613fce565b9150613f5183613fce565b925082821015613f6457613f636140cb565b5b828203905092915050565b6000613f7a82613f8d565b9050919050565b60008115159050919050565b600073ffffffffffffffffffffffffffffffffffffffff82169050919050565b600074ffffffffffffffffffffffffffffffffffffffffff82169050919050565b6000819050919050565b600067ffffffffffffffff82169050919050565b60005b8381101561400a578082015181840152602081019050613fef565b83811115614019576000848401525b50505050565b6000600282049050600182168061403757607f821691505b6020821081141561404b5761404a6140fa565b5b50919050565b61405a8261419b565b810181811067ffffffffffffffff8211171561407957614078614158565b5b80604052505050565b600061408d82613fce565b91507fffffffffffffffffffffffffffffffffffffffffffffffffffffffffffffffff8214156140c0576140bf6140cb565b5b600182019050919050565b7f4e487b7100000000000000000000000000000000000000000000000000000000600052601160045260246000fd5b7f4e487b7100000000000000000000000000000000000000000000000000000000600052602260045260246000fd5b7f4e487b7100000000000000000000000000000000000000000000000000000000600052603260045260246000fd5b7f4e487b7100000000000000000000000000000000000000000000000000000000600052604160045260246000fd5b600080fd5b600080fd5b600080fd5b600080fd5b6000601f19601f8301169050919050565b7f697473206c616e64696e67206e6f770000000000000000000000000000000000600082015250565b7f796f752063616e27742072656e7420796f757220746f6b656e00000000000000600082015250565b7f616c6c6f77616e636520697320736f206c6f7700000000000000000000000000600082015250565b7f6c656e6420697320627573790000000000000000000000000000000000000000600082015250565b7f686176656e2774207468697320746f6b656e2069640000000000000000000000600082015250565b7f726571756573742074696d65206d6f7265207468656e20617661696c61626c65600082015250565b7f7468697320746f6b656e20616c72656164792075736564000000000000000000600082015250565b6142d481613fad565b81146142df57600080fd5b50565b6142eb81613f81565b81146142f657600080fd5b50565b61430281613fce565b811461430d57600080fd5b5056fea26474726f6e582212205f87d43d549fe6fe79a61d142a70561b8e88bf6089ded048fb61f9661b3f1fd964736f6c63430008060033",
  "source": "// SPDX-License-Identifier: MIT\r\npragma solidity 0.8;\r\n\r\nimport \"@openzeppelin/contracts/token/ERC20/IERC20.sol\";\r\nimport \"@openzeppelin/contracts/utils/Counters.sol\";\r\nimport \"../EIPs/IERC4907.sol\";\r\nimport \"../utils/OwnableLink.sol\";\r\nimport \"./IRentMarket.sol\";\r\n\r\ncontract RentMarket is IRentMarket, OwnableLink {\r\n\r\n    using Counters for Counters.Counter;\r\n    \r\n    constructor (address _owanble) {\r\n        ownable = IOwnable(_owanble);\r\n    }\r\n\r\n    IERC20 _tokenPayment;\r\n\r\n    Counters.Counter private _lends;\r\n    Counters.Counter private _rents;\r\n    mapping (address=>mapping (uint=>uint)) private _nftToLend;\r\n    mapping (uint=>Lend) private _lendMap;\r\n    mapping (uint=>Rent) private _rentMap;\r\n\r\n    function isApprovedOrOwner(\r\n        address spender, \r\n        uint256 tokenId, \r\n        address collectionAddress\r\n    )\r\n        public view override returns(bool)\r\n    {\r\n        IERC4907 collection = IERC4907(collectionAddress);\r\n        address owner = collection.ownerOf(tokenId);\r\n        return \r\n            spender == owner ||\r\n            collection.isApprovedForAll(owner, spender) ||\r\n            collection.getApproved(tokenId) == spender;\r\n    }\r\n\r\n    function getTokenPayment() \r\n        public view override returns(address token) {\r\n        token = address(_tokenPayment);\r\n    }\r\n\r\n    function getAvailableStatus(uint lendId) \r\n        public view override returns(bool available) {\r\n        Lend storage lend = _lendMap[lendId];\r\n        if (isApprovedOrOwner(\r\n            address(this), \r\n            lend.tokenId, \r\n            lend.collectionAddress)) {\r\n            if (lend.endTimestamp > block.timestamp) {\r\n                return lend.rents.length == 0\r\n                    ? true \r\n                    : _rentMap[\r\n                        lend.rents[lend.rents.length-1]\r\n                        ].endTimestamp < block.timestamp;\r\n            }\r\n        }\r\n    }\r\n\r\n    function getLends()\r\n        public view override returns(Lend[] memory lends) {\r\n        uint lendsCount = _lends.current();\r\n        lends = new Lend[](lendsCount);\r\n        for (uint256 i; i < lendsCount; i++) {\r\n            lends[i] = _lendMap[i+1];\r\n        }\r\n    }\r\n\r\n    function getLendsCount()\r\n        public view override returns(uint lendCount) {\r\n        lendCount = _lends.current();\r\n    }\r\n\r\n    function getLendById(uint lendId)\r\n        public view override returns(Lend memory lend) {\r\n        lend = _lendMap[lendId];\r\n    }\r\n    \r\n    function getRents() \r\n        public view override returns(Rent[] memory rents) {\r\n        uint rentsCount = _rents.current();\r\n        rents = new Rent[](rentsCount);\r\n\r\n        for (uint i; i < rentsCount; i++) {\r\n            rents[i] = _rentMap[i+1];\r\n        }\r\n    }\r\n\r\n    function getRentsCount()\r\n        public view override returns(uint rentCount) {\r\n        rentCount = _rents.current();\r\n    }\r\n\r\n    function getRentById(uint rentId)\r\n        public view override returns(Rent memory rent) {\r\n        rent = _rentMap[rentId];\r\n    }\r\n\r\n\r\n    function getOwnerLends(address owner) \r\n        public view override returns(Lend[] memory lends) {\r\n        uint lendsCount = _lends.current();\r\n        uint ownerLendCount;\r\n        uint current;\r\n\r\n        for (uint i; i < lendsCount; i++) {\r\n            if (_lendMap[i+1].owner == owner) {\r\n                if (_lendMap[i+1].endTimestamp > block.timestamp) {\r\n                    ownerLendCount++;\r\n                }\r\n            }\r\n        }\r\n\r\n        lends = new Lend[](ownerLendCount);\r\n\r\n        for (uint i; i < lendsCount; i++) {\r\n            if (_lendMap[i+1].owner == owner) {\r\n                if (_lendMap[i+1].endTimestamp > block.timestamp) {\r\n                    lends[current] = _lendMap[i+1];\r\n                    IERC4907 collection = IERC4907(\r\n                        lends[current].collectionAddress\r\n                    );\r\n                    lends[current].tokenUri = collection.tokenURI(\r\n                        lends[current].tokenId\r\n                    );\r\n                    current++;\r\n                }\r\n            }\r\n        }\r\n    }\r\n\r\n    function getAvailableLends() \r\n        public view override returns(Lend[] memory lends) {\r\n        uint lendsCount = _lends.current();\r\n        uint availableRentCount;\r\n        uint current;\r\n\r\n        for (uint i; i < lendsCount; i++) {\r\n            if (getAvailableStatus(i+1)) {\r\n                if (_lendMap[i+1].endTimestamp > block.timestamp) {\r\n                    availableRentCount++;\r\n                }\r\n            }\r\n        }\r\n\r\n        lends = new Lend[](availableRentCount);\r\n\r\n        for (uint i; i < lendsCount; i++) {\r\n            if (getAvailableStatus(i+1)) {\r\n                if (_lendMap[i+1].endTimestamp > block.timestamp) {\r\n                    lends[current] = _lendMap[i+1];\r\n                    IERC4907 collection = IERC4907(\r\n                        lends[current].collectionAddress\r\n                    );\r\n                    lends[current].tokenUri = collection.tokenURI(\r\n                        lends[current].tokenId\r\n                    );\r\n                    current++;\r\n                }\r\n            }\r\n        }\r\n    }\r\n\r\n    function getCustomerRents(address customer) \r\n        public view override returns(Rent[] memory rents) {\r\n        uint rentsCount = _rents.current();\r\n        uint customerRentCount;\r\n        uint current;\r\n\r\n        for (uint i; i < rentsCount; i++) {\r\n            if (_rentMap[i+1].customer == customer) {\r\n                if (_rentMap[i+1].endTimestamp > block.timestamp) {\r\n                    customerRentCount++;\r\n                }\r\n            }\r\n        }\r\n\r\n        rents = new Rent[](customerRentCount);\r\n\r\n        for (uint i; i < rentsCount; i++) {\r\n            if (_rentMap[i+1].customer == customer) {\r\n                if (_rentMap[i+1].endTimestamp > block.timestamp) {\r\n                    rents[current] = _rentMap[i+1];\r\n                    IERC4907 collection = IERC4907(\r\n                        rents[current].collectionAddress\r\n                    );\r\n                    rents[current].tokenUri = collection.tokenURI(\r\n                        rents[current].tokenId\r\n                    );\r\n                    current++;\r\n                }\r\n            }\r\n        }\r\n    }\r\n\r\n    function setTokenPayment(address token)\r\n        public override CheckPerms {\r\n        _tokenPayment = IERC20(token);\r\n    }\r\n\r\n    function initLend(\r\n        uint tokenId,\r\n        address collectionAddress,\r\n        uint timeUnitSeconds,\r\n        uint timeUnitPrice,\r\n        uint timeUnitCount\r\n    ) \r\n        public override returns(uint256 lendId) \r\n    {\r\n        IERC4907 collection = IERC4907(collectionAddress);\r\n        require(collection.userOf(tokenId) == address(0) || \r\n            collection.userOf(tokenId) != collection.ownerOf(tokenId), \r\n            \"this token already used\");\r\n        address owner = collection.ownerOf(tokenId);\r\n        require(owner == msg.sender, \"haven't this token id\");\r\n        \r\n        _lends.increment();\r\n        lendId = _lends.current();\r\n        uint startTimestamp = block.timestamp;\r\n        uint endTimestamp = startTimestamp + timeUnitCount * timeUnitSeconds;\r\n        \r\n        _nftToLend[collectionAddress][tokenId] = lendId;\r\n        _lendMap[lendId] = Lend(\r\n            lendId,\r\n            tokenId,\r\n             collectionAddress,\r\n            \"\",\r\n            owner,\r\n            timeUnitSeconds,\r\n            timeUnitPrice,\r\n            timeUnitCount,\r\n            startTimestamp,\r\n            endTimestamp,\r\n            new uint[](0)\r\n        );\r\n    }\r\n\r\n    function closeLend(uint lendId) \r\n        public override {\r\n        Lend memory lend = _lendMap[lendId];\r\n        require(lend.endTimestamp < block.timestamp, \"its landing now\");\r\n        uint tokenAmount;\r\n        \r\n        for (uint i; i <= lend.rents.length; i++) {\r\n            tokenAmount += \r\n                lend.timeUnitPrice * \r\n                _rentMap[lend.rents[i]].timeUnitCount;\r\n        }\r\n\r\n        _tokenPayment.transferFrom(address(this), lend.owner, tokenAmount);\r\n    }\r\n\r\n    function initRent(\r\n        uint lendId, \r\n        uint timeUnitCount\r\n    ) \r\n        public override returns(uint rentId) \r\n    {\r\n        Lend storage lend = _lendMap[lendId];\r\n        uint tokenAmount = lend.timeUnitPrice * timeUnitCount;\r\n        require(\r\n            lend.endTimestamp >\r\n            lend.timeUnitSeconds * timeUnitCount + block.timestamp, \r\n            \"request time more then available\");\r\n        require(lend.owner != msg.sender, \"you can't rent your token\");\r\n        require(getAvailableStatus(lendId), \"lend is busy\");\r\n        require(_tokenPayment.allowance(\r\n            msg.sender, \r\n            address(this)\r\n            ) >= tokenAmount, \"allowance is so low\");\r\n        \r\n        _rents.increment();\r\n        rentId = _rents.current();\r\n        address customer = msg.sender;\r\n        uint startTimestamp = block.timestamp;\r\n        uint endTimestamp = startTimestamp + timeUnitCount * lend.timeUnitSeconds;\r\n        IERC4907 collection = IERC4907(lend. collectionAddress);\r\n        \r\n        collection.setUser(lend.tokenId, customer, uint64(endTimestamp));\r\n        _tokenPayment.transferFrom(msg.sender, address(this), tokenAmount);\r\n\r\n        _rentMap[rentId] = Rent(\r\n            rentId,\r\n            lend.tokenId,\r\n            lend.collectionAddress,\r\n            \"\",\r\n            customer,\r\n            lendId,\r\n            lend.timeUnitSeconds,\r\n            timeUnitCount,\r\n            startTimestamp,\r\n            endTimestamp\r\n        );\r\n        _lendMap[lendId].rents.push(rentId);\r\n    }\r\n}",
  "sourcePath": "C:/Users/maxek/Desktop/Sergeich/contracts/first/RentMarket.sol",
  "compiler": {
    "name": "solc",
    "version": "0.8.6+commit.0e36fba0.mod.Emscripten.clang"
  },
  "schemaVersion": "2.0.1",
  "updatedAt": "2023-03-02T14:42:58.123Z"
}